{
    "bytecode": "60c06040526007546001600160a01b031660809081523060a052620000299060149060026200061e565b50683635c9adc5dea0000060165560016017556302faf080601c556005601d55600a601e556003601f819055600260208190556021819055602282905560239190915560245569021e19e0c9bab24000006025556027805462ffffff60ff60c01b011916600160c01b179055348015620000a257600080fd5b506040516200364938038062003649833981016040819052620000c59162000739565b60408051808201825260078152664632537069636560c81b60208083019182528351808501909452600684526546537069636560d01b908401528151919291620001129160039162000688565b5080516200012890600490602084019062000688565b505050620001456200013f6200050060201b60201c565b62000504565b600780546001600160a01b038087166001600160a01b0319928316179092556006805492851692909116821790556040805163c45a015560e01b8152905163c45a0155916004808201926020929091908290030181865afa158015620001af573d6000803e3d6000fd5b505050506040513d601f19601f82011682018060405250810190620001d591906200078b565b6007546040516364e329cb60e11b81523060048201526001600160a01b03918216602482015291169063c9c65396906044016020604051808303816000875af115801562000227573d6000803e3d6000fd5b505050506040513d601f19601f820116820180604052508101906200024d91906200078b565b600980546001600160a01b039283166001600160a01b0319918216811783556013805460018181019092557f66de8ffda797e3de9c05e8fc57b3bf0ec28a930d40b0d285d93c06501cf6a0900180549093169091179091559054821660009081526011602052604090819020805460ff1916909217909155600754905163095ea7b360e01b8152848316600482015260001960248201528492919091169063095ea7b3906044016020604051808303816000875af115801562000314573d6000803e3d6000fd5b505050506040513d601f19601f820116820180604052508101906200033a9190620007b0565b5060075460095460405163095ea7b360e01b81526001600160a01b039182166004820152600019602482015291169063095ea7b3906044016020604051808303816000875af115801562000392573d6000803e3d6000fd5b505050506040513d601f19601f82011682018060405250810190620003b89190620007b0565b5060075460405163095ea7b360e01b815230600482015260001960248201526001600160a01b039091169063095ea7b3906044016020604051808303816000875af11580156200040c573d6000803e3d6000fd5b505050506040513d601f19601f82011682018060405250810190620004329190620007b0565b503060008181526012602090815260408083206006546001600160a01b03908116855290835281842060001990819055858552828520819055600954821685528285205593835260109091528082208054600160ff1991821681179092553380855283852080548316841790559489168085529290932080549093161790915560278054600160201b600160c01b031916640100000000909202919091179055601654620004e1919062000556565b620004f5846016546200055660201b60201c565b505050505062000837565b3390565b600580546001600160a01b038381166001600160a01b0319831681179093556040519116919082907f8be0079c531659141344cd1fd0a4f28419497f9722a3daafe3b4186f6b6457e090600090a35050565b6001600160a01b038216620005b15760405162461bcd60e51b815260206004820152601f60248201527f45524332303a206d696e7420746f20746865207a65726f206164647265737300604482015260640160405180910390fd5b8060156000828254620005c59190620007d4565b90915550506001600160a01b0382166000818152600f60209081526040808320805486019055518481527fddf252ad1be2c89b69c2b068fc378daa952ba7f163c4a11628f55a4df523b3ef910160405180910390a35050565b82805482825590600052602060002090810192821562000676579160200282015b828111156200067657825182546001600160a01b0319166001600160a01b039091161782556020909201916001909101906200063f565b506200068492915062000705565b5090565b8280546200069690620007fb565b90600052602060002090601f016020900481019282620006ba576000855562000676565b82601f10620006d557805160ff191683800117855562000676565b8280016001018555821562000676579182015b8281111562000676578251825591602001919060010190620006e8565b5b8082111562000684576000815560010162000706565b80516001600160a01b03811681146200073457600080fd5b919050565b600080600080608085870312156200075057600080fd5b6200075b856200071c565b93506200076b602086016200071c565b92506200077b604086016200071c565b6060959095015193969295505050565b6000602082840312156200079e57600080fd5b620007a9826200071c565b9392505050565b600060208284031215620007c357600080fd5b81518015158114620007a957600080fd5b60008219821115620007f657634e487b7160e01b600052601160045260246000fd5b500190565b600181811c908216806200081057607f821691505b6020821081036200083157634e487b7160e01b600052602260045260246000fd5b50919050565b612e0280620008476000396000f3fe608060405234801561001057600080fd5b506004361061030b5760003560e01c80637385d3e21161019d578063a9059cbb116100e9578063c2c5035f116100a2578063d43997901161007c578063d43997901461066a578063dd62ed3e14610696578063ecf0cefb146106cf578063f2fde38b146106e257600080fd5b8063c2c5035f14610631578063c74a195814610644578063d07a091c1461065757600080fd5b8063a9059cbb146105c5578063ab7456f6146105d8578063af280265146105eb578063ba539af9146105fe578063bc52da0b14610611578063bee6348a1461062457600080fd5b80638ebfc796116101565780639d9241ec116101305780639d9241ec14610583578063a2026f231461058c578063a40f4fa11461059f578063a457c2d7146105b257600080fd5b80638ebfc7961461055557806395d89b41146105685780639a73b9411461057057600080fd5b80637385d3e214610506578063753d02a11461050e57806379cc6790146105165780637b2087691461052957806387a8f19d1461053c5780638da5cb5b1461054457600080fd5b8063395093511161025c5780634738a8831161021557806359b107b9116101ef57806359b107b9146104b95780635f282e95146104c257806370a08231146104d5578063715018a6146104fe57600080fd5b80634738a8831461048b57806347c1623d1461049d5780635266c32f146104a657600080fd5b806339509351146104195780633c8e556d1461042c5780633ca5b2341461043f57806342966c681461045257806345adf74c146104655780634626402b1461047857600080fd5b806318160ddd116102c957806325e73f18116102a357806325e73f18146103b9578063264d26dd146103cc578063313ce567146103f757806334b3092e1461040657600080fd5b806318160ddd1461038b57806323b872dd1461039357806325714c97146103a657600080fd5b80620e7fa81461031057806306fdde031461032c578063095ea7b3146103415780631085e1f314610364578063128e0bfb1461036d57806314654ff014610382575b600080fd5b61031960175481565b6040519081526020015b60405180910390f35b6103346106f5565b6040516103239190612855565b61035461034f3660046128c6565b610787565b6040519015158152602001610323565b61031960185481565b61038061037b3660046128f0565b61079e565b005b61031960195481565b601554610319565b6103546103a1366004612912565b61084a565b6103806103b436600461294e565b61086e565b6103806103c736600461294e565b610ad0565b6008546103df906001600160a01b031681565b6040516001600160a01b039091168152602001610323565b60405160128152602001610323565b610380610414366004612975565b610c75565b6103546104273660046128c6565b610cf5565b61038061043a366004612992565b610d86565b6007546103df906001600160a01b031681565b61038061046036600461294e565b610e96565b600d546103df906001600160a01b031681565b600b546103df906001600160a01b031681565b60275461035490610100900460ff1681565b610319601a5481565b6009546103df906001600160a01b031681565b610319601d5481565b6103806104d03660046128c6565b610ea3565b6103196104e33660046129e6565b6001600160a01b03166000908152600f602052604090205490565b610380610f10565b610319610f46565b610380610fee565b6103806105243660046128c6565b611084565b600c546103df906001600160a01b031681565b610319611105565b6005546001600160a01b03166103df565b610380610563366004612a01565b6111bd565b6103346112a9565b61038061057e366004612a01565b6112b8565b610319601e5481565b61035461059a3660046129e6565b6113b3565b6103806105ad3660046128f0565b6114c5565b6103546105c03660046128c6565b61153e565b6103546105d33660046128c6565b611625565b6103546105e636600461294e565b61163d565b6103806105f9366004612a38565b6116f3565b61038061060c366004612975565b6119d9565b61038061061f36600461294e565b611a50565b6027546103549060ff1681565b61038061063f3660046129e6565b611ad7565b600a546103df906001600160a01b031681565b6103806106653660046129e6565b611b4d565b6103546106783660046129e6565b6001600160a01b031660009081526010602052604090205460ff1690565b6103196106a4366004612a56565b6001600160a01b03918216600090815260126020908152604080832093909416825291909152205490565b6103806106dd36600461294e565b611ba5565b6103806106f03660046129e6565b611cd1565b60606003805461070490612a89565b80601f016020809104026020016040519081016040528092919081815260200182805461073090612a89565b801561077d5780601f106107525761010080835404028352916020019161077d565b820191906000526020600020905b81548152906001019060200180831161076057829003601f168201915b5050505050905090565b6000610794338484611d69565b5060015b92915050565b600654600754600d5460405162e8e33760e81b81523060048201526001600160a01b039283166024820152604481018690526064810185905260006084820181905260a482015290821660c48201524260e482015291169063e8e3370090610104016060604051808303816000875af115801561081f573d6000803e3d6000fd5b505050506040513d601f19601f820116820180604052508101906108439190612abd565b5050505050565b600033610858858285611e8d565b610863858585611f19565b506001949350505050565b6000811161087b57600080fd5b6000610885610f46565b90506000670de0b6b3a764000061089c8385612b01565b6108a69190612b20565b6007546040516370a0823160e01b81523060048201529192506000916001600160a01b03909116906370a0823190602401602060405180830381865afa1580156108f4573d6000803e3d6000fd5b505050506040513d601f19601f820116820180604052508101906109189190612b42565b9050808211156109835760405162461bcd60e51b815260206004820152602b60248201527f696e73756666696369656e74206c697175696469747920696e2074686520696e60448201526a1d195c9b985b081c1bdbdb60aa1b60648201526084015b60405180910390fd5b60006064601e54846109959190612b01565b61099f9190612b20565b905080601a60008282546109b39190612b5b565b90915550600090506109c58285612b73565b336000908152600f60205260408120805492935088929091906109e9908490612b73565b925050819055508560156000828254610a029190612b73565b925050819055508360266000828254610a1b9190612b73565b90915550610a2c90506000856116f3565b60075460405163a9059cbb60e01b8152336004820152602481018390526001600160a01b039091169063a9059cbb906044016020604051808303816000875af1158015610a7d573d6000803e3d6000fd5b505050506040513d601f19601f82011682018060405250810190610aa19190612b8a565b506040518681526000903390600080516020612dad8339815191529060200160405180910390a3505050505050565b6000601d54601e54610ae29190612b5b565b90506000606482610b0060205460235461220190919063ffffffff16565b610b0b906064612b01565b610b159190612b20565b610b1f9085612b01565b610b299190612b20565b90506000606483610b47601f5460225461220190919063ffffffff16565b610b52906064612b01565b610b5c9190612b20565b610b669086612b01565b610b709190612b20565b905060006064846021546064610b869190612b01565b610b909190612b20565b610b9a9087612b01565b610ba49190612b20565b905060006064856024546064610bba9190612b01565b610bc49190612b20565b610bce9088612b01565b610bd89190612b20565b600b54909150610bf29085906001600160a01b0316612214565b600d54610c099084906001600160a01b0316612214565b600a54610c209083906001600160a01b0316612214565b600c54610c379082906001600160a01b0316612214565b8083610c438487612b5b565b610c4d9190612b5b565b610c579190612b5b565b60196000828254610c689190612b73565b9091555050505050505050565b6005546001600160a01b03163314610c9f5760405162461bcd60e51b815260040161097a90612ba7565b60278054821515620100000262ff0000199091161790556040517f87785c205bdecd32ddbcbeb016094641e4b43d5aaee98563596b34883e65900390610cea90831515815260200190565b60405180910390a150565b3360009081526012602090815260408083206001600160a01b0386168452909152812054610d239083612201565b3360008181526012602090815260408083206001600160a01b038916808552908352928190208590555193845290927f8c5be1e5ebec7d5bd14f71427d1e84f3dd0314c0f7b2291e5b200ac8c7c3b925910160405180910390a350600192915050565b6005546001600160a01b03163314610db05760405162461bcd60e51b815260040161097a90612ba7565b600d80546001600160a01b038681166001600160a01b03199283168117909355600b805487831690841681178255600c805488851690861681178255600a80548987169716871781556000888152601060209081526040808320805460ff19908116600190811790925598548a16845281842080548a168217905595548916835280832080548916871790559254909716815281902080549095169092179093558051958652928501529083015260608201527f0824f26a5a1c7f10b10915a7b3391149cf6bd9af4fc0c2da7e492fdaadc2e0609060800160405180910390a150505050565b610ea03382612319565b50565b6005546001600160a01b03163314610ecd5760405162461bcd60e51b815260040161097a90612ba7565b6009546001600160a01b03166000908152600f60205260409020546025548290610ef79083612b73565b11610f0157600080fd5b610f0b8383612455565b505050565b6005546001600160a01b03163314610f3a5760405162461bcd60e51b815260040161097a90612ba7565b610f446000612589565b565b60065460405163d06ca61f60e01b815260009182916001600160a01b039091169063d06ca61f90610f8690670de0b6b3a764000090601490600401612bdc565b600060405180830381865afa158015610fa3573d6000803e3d6000fd5b505050506040513d6000823e601f3d908101601f19168201604052610fcb9190810190612c4e565b905080600181518110610fe057610fe0612d0c565b602002602001015191505090565b60005b601354811015610ea0576013818154811061100e5761100e612d0c565b60009182526020822001546040805160016209351760e01b0319815290516001600160a01b039092169263fff6cae99260048084019382900301818387803b15801561105957600080fd5b505af115801561106d573d6000803e3d6000fd5b50505050808061107c90612d22565b915050610ff1565b600061109083336106a4565b9050818110156110ee5760405162461bcd60e51b8152602060048201526024808201527f45524332303a206275726e20616d6f756e74206578636565647320616c6c6f77604482015263616e636560e01b606482015260840161097a565b6110fb8333848403611d69565b610f0b8383612319565b6009546001600160a01b03166000908152600f602052604081205481906007546009546040516370a0823160e01b81526001600160a01b0391821660048201529293506000929116906370a0823190602401602060405180830381865afa158015611174573d6000803e3d6000fd5b505050506040513d601f19601f820116820180604052508101906111989190612b42565b905081156111b45760006111ac8383612b20565b949350505050565b60019250505090565b6005546001600160a01b031633146111e75760405162461bcd60e51b815260040161097a90612ba7565b6001600160a01b03821660009081526010602052604090205481151560ff9091161515036112455760405162461bcd60e51b815260206004820152600b60248201526a139bdd0818da185b99d95960aa1b604482015260640161097a565b6001600160a01b038216600081815260106020908152604091829020805460ff19168515159081179091558251938452908301527f6be51401060be42994125d8c96b787433e7a641a3555e3c3c4765e8a950fa37a91015b60405180910390a15050565b60606004805461070490612a89565b6005546001600160a01b031633146112e25760405162461bcd60e51b815260040161097a90612ba7565b6001600160a01b03821660009081526011602052604090205481151560ff9091161515036113465760405162461bcd60e51b815260206004820152601160248201527015985b1d5948185b1c9958591e481cd95d607a1b604482015260640161097a565b6001600160a01b03919091166000818152601160205260408120805460ff1916931515939093179092556013805460018101825592527f66de8ffda797e3de9c05e8fc57b3bf0ec28a930d40b0d285d93c06501cf6a09090910180546001600160a01b0319169091179055565b600754600d546040516370a0823160e01b81526001600160a01b039182166004820152600092839216906370a0823190602401602060405180830381865afa158015611403573d6000803e3d6000fd5b505050506040513d601f19601f820116820180604052508101906114279190612b42565b9050601c548111801561145357506001600160a01b03831660009081526010602052604090205460ff16155b801561146957506027546301000000900460ff16155b801561148e57506001600160a01b03831660009081526011602052604090205460ff16155b80156114a85750602754600160c01b900460ff1615156001145b156114b65750600192915050565b50600092915050565b50919050565b60275464010000000090046001600160a01b031633146114e457600080fd5b8082146115265760405162461bcd60e51b815260206004820152601060248201526f185b5bdd5b9d081b9bdd08195c5d585b60821b604482015260640161097a565b61153030826125db565b61153a828261079e565b5050565b3360009081526012602090815260408083206001600160a01b0386168452909152812054808310611592573360009081526012602090815260408083206001600160a01b03881684529091528120556115c1565b61159c818461268a565b3360009081526012602090815260408083206001600160a01b03891684529091529020555b3360008181526012602090815260408083206001600160a01b038916808552908352928190205490519081529192917f8c5be1e5ebec7d5bd14f71427d1e84f3dd0314c0f7b2291e5b200ac8c7c3b925910160405180910390a35060019392505050565b600033611633818585611f19565b5060019392505050565b6007546009546040516370a0823160e01b81526001600160a01b039182166004820152600092839216906370a0823190602401602060405180830381865afa15801561168d573d6000803e3d6000fd5b505050506040513d601f19601f820116820180604052508101906116b19190612b42565b90506116be836002612696565b811180156116cc5750600083115b80156114a857506027546000196201000090910460ff161515016114b65750600192915050565b8115156001036117cd57600060648260205461170f9190612b01565b6117199190612b20565b90506000606483601f5461172d9190612b01565b6117379190612b20565b600754600b5460405163a9059cbb60e01b81526001600160a01b03918216600482015260248101869052929350169063a9059cbb906044016020604051808303816000875af115801561178e573d6000803e3d6000fd5b505050506040513d601f19601f820116820180604052508101906117b29190612b8a565b506117bd30826125db565b6117c7818261079e565b50505050565b81151560000361153a5760006064826023546117e99190612b01565b6117f39190612b20565b905060006064836022546118079190612b01565b6118119190612b20565b905060006064846021546118259190612b01565b61182f9190612b20565b905060006064856024546118439190612b01565b61184d9190612b20565b600754600b5460405163a9059cbb60e01b81526001600160a01b03918216600482015260248101889052929350169063a9059cbb906044016020604051808303816000875af11580156118a4573d6000803e3d6000fd5b505050506040513d601f19601f820116820180604052508101906118c89190612b8a565b50600754600a5460405163a9059cbb60e01b81526001600160a01b0391821660048201526024810185905291169063a9059cbb906044016020604051808303816000875af115801561191e573d6000803e3d6000fd5b505050506040513d601f19601f820116820180604052508101906119429190612b8a565b50600754600c5460405163a9059cbb60e01b81526001600160a01b0391821660048201526024810184905291169063a9059cbb906044016020604051808303816000875af1158015611998573d6000803e3d6000fd5b505050506040513d601f19601f820116820180604052508101906119bc9190612b8a565b506119c730846125db565b6119d1838461079e565b505050505050565b6005546001600160a01b03163314611a035760405162461bcd60e51b815260040161097a90612ba7565b60278054821515600160c01b0260ff60c01b199091161790556040517f87785c205bdecd32ddbcbeb016094641e4b43d5aaee98563596b34883e65900390610cea90831515815260200190565b6005546001600160a01b03163314611a7a5760405162461bcd60e51b815260040161097a90612ba7565b670de0b6b3a7640000811015611ad25760405162461bcd60e51b815260206004820152601760248201527f74726573686f6c64206d75737420626520686967686572000000000000000000604482015260640161097a565b601c55565b6005546001600160a01b03163314611b015760405162461bcd60e51b815260040161097a90612ba7565b601954611b0e8282611625565b5060006019556040516001600160a01b03831681527f2f0f983bc447da14da80ef6b41a88ab1ea636129df3a6af92b870934d6802a859060200161129d565b6005546001600160a01b03163314611b775760405162461bcd60e51b815260040161097a90612ba7565b602780546001600160a01b0390921664010000000002640100000000600160c01b0319909216919091179055565b60008111611bb257600080fd5b6000611bbc610f46565b905060006064601d5484611bd09190612b01565b611bda9190612b20565b905080601a6000828254611bee9190612b5b565b9091555060009050611c008285612b73565b9050600083611c1783670de0b6b3a7640000612b01565b611c219190612b20565b6007546040516323b872dd60e01b8152336004820152306024820152604481018890529192506001600160a01b0316906323b872dd906064016020604051808303816000875af1158015611c79573d6000803e3d6000fd5b505050506040513d601f19601f82011682018060405250810190611c9d9190612b8a565b50611ca96001866116f3565b611cb333826125db565b8160266000828254611cc59190612b5b565b90915550505050505050565b6005546001600160a01b03163314611cfb5760405162461bcd60e51b815260040161097a90612ba7565b6001600160a01b038116611d605760405162461bcd60e51b815260206004820152602660248201527f4f776e61626c653a206e6577206f776e657220697320746865207a65726f206160448201526564647265737360d01b606482015260840161097a565b610ea081612589565b6001600160a01b038316611dcb5760405162461bcd60e51b8152602060048201526024808201527f45524332303a20617070726f76652066726f6d20746865207a65726f206164646044820152637265737360e01b606482015260840161097a565b6001600160a01b038216611e2c5760405162461bcd60e51b815260206004820152602260248201527f45524332303a20617070726f766520746f20746865207a65726f206164647265604482015261737360f01b606482015260840161097a565b6001600160a01b0383811660008181526012602090815260408083209487168084529482529182902085905590518481527f8c5be1e5ebec7d5bd14f71427d1e84f3dd0314c0f7b2291e5b200ac8c7c3b925910160405180910390a3505050565b6001600160a01b0380841660009081526012602090815260408083209386168352929052205460001981146117c75781811015611f0c5760405162461bcd60e51b815260206004820152601d60248201527f45524332303a20696e73756666696369656e7420616c6c6f77616e6365000000604482015260640161097a565b6117c78484848403611d69565b6001600160a01b038316611f7d5760405162461bcd60e51b815260206004820152602560248201527f45524332303a207472616e736665722066726f6d20746865207a65726f206164604482015264647265737360d81b606482015260840161097a565b6001600160a01b038216611fdf5760405162461bcd60e51b815260206004820152602360248201527f45524332303a207472616e7366657220746f20746865207a65726f206164647260448201526265737360e81b606482015260840161097a565b601954611feb8161163d565b801561201057506001600160a01b03841660009081526011602052604090205460ff16155b801561202657506027546301000000900460ff16155b801561204b57506001600160a01b03841660009081526010602052604090205460ff16155b1561207a576027805463ff0000001916630100000017905561206c81610ad0565b6027805463ff000000191690555b612083846113b3565b15612107576027805463ff00000019166301000000179055600d5460408051638d50d49960e01b815290516001600160a01b0390921691638d50d4999160048082019260009290919082900301818387803b1580156120e157600080fd5b505af11580156120f5573d6000803e3d6000fd5b50506027805463ff0000001916905550505b6001600160a01b0384166000908152600f60205260409020548281101561217f5760405162461bcd60e51b815260206004820152602660248201527f45524332303a207472616e7366657220616d6f756e7420657863656564732062604482015265616c616e636560d01b606482015260840161097a565b600061218b86866126a2565b61219557836121a0565b6121a0868686612742565b90506121ac828561268a565b6001600160a01b038781166000818152600f60209081526040808320959095559289168082529084902080548601905592518481529091600080516020612dad833981519152910160405180910390a36119d1565b600061220d8284612b5b565b9392505050565b600061222142603c612b5b565b6040805160028082526060820183529293506000929091602083019080368337019050509050308160008151811061225b5761225b612d0c565b6001600160a01b03928316602091820292909201015260075482519116908290600190811061228c5761228c612d0c565b6001600160a01b0392831660209182029290920101526006546040516338ed173960e01b81529116906338ed1739906122d2908790600090869089908990600401612d3b565b6000604051808303816000875af11580156122f1573d6000803e3d6000fd5b505050506040513d6000823e601f3d908101601f191682016040526108439190810190612c4e565b6001600160a01b0382166123795760405162461bcd60e51b815260206004820152602160248201527f45524332303a206275726e2066726f6d20746865207a65726f206164647265736044820152607360f81b606482015260840161097a565b6001600160a01b038216600090815260208190526040902054818110156123ed5760405162461bcd60e51b815260206004820152602260248201527f45524332303a206275726e20616d6f756e7420657863656564732062616c616e604482015261636560f01b606482015260840161097a565b6001600160a01b038316600090815260208190526040812083830390556002805484929061241c908490612b73565b90915550506040518281526000906001600160a01b03851690600080516020612dad8339815191529060200160405180910390a3505050565b6001600160a01b03821660009081526011602052604090205460ff166124bd5760405162461bcd60e51b815260206004820152601a60248201527f4974206d7573742062652061207061697220636f6e7472616374000000000000604482015260640161097a565b80601560008282546124cf9190612b73565b90915550506001600160a01b0382166000908152600f6020526040812080548392906124fc908490612b73565b92505081905550816001600160a01b031663fff6cae96040518163ffffffff1660e01b8152600401600060405180830381600087803b15801561253e57600080fd5b505af1158015612552573d6000803e3d6000fd5b5050604051838152600092506001600160a01b0385169150600080516020612dad8339815191529060200160405180910390a35050565b600580546001600160a01b038381166001600160a01b0319831681179093556040519116919082907f8be0079c531659141344cd1fd0a4f28419497f9722a3daafe3b4186f6b6457e090600090a35050565b6001600160a01b0382166126315760405162461bcd60e51b815260206004820152601f60248201527f45524332303a206d696e7420746f20746865207a65726f206164647265737300604482015260640161097a565b80601560008282546126439190612b5b565b90915550506001600160a01b0382166000818152600f6020908152604080832080548601905551848152600080516020612dad833981519152910160405180910390a35050565b600061220d8284612b73565b600061220d8284612b01565b6001600160a01b03821660009081526010602052604081205460ff16806126e157506001600160a01b03821660009081526010602052604090205460ff165b156126ee57506000610798565b6001600160a01b03831660009081526011602052604090205460ff168061272d57506001600160a01b03821660009081526011602052604090205460ff165b1561273a57506001610798565b506000610798565b6001600160a01b0382166000908152601160205260408120548190819060ff161561276d57601e5491505b6001600160a01b03861660009081526011602052604090205460ff161561279457601d5491505b60646127a08584612b01565b6127aa9190612b20565b915060006127b8858461268a565b905060006127c68287612b73565b306000908152600f60205260408120805492935083929091906127ea908490612b5b565b9182905550306000908152600f602052604081209190915560198054849350909190612817908490612b5b565b909155505060405181815230906001600160a01b038a1690600080516020612dad8339815191529060200160405180910390a3509695505050505050565b600060208083528351808285015260005b8181101561288257858101830151858201604001528201612866565b81811115612894576000604083870101525b50601f01601f1916929092016040019392505050565b80356001600160a01b03811681146128c157600080fd5b919050565b600080604083850312156128d957600080fd5b6128e2836128aa565b946020939093013593505050565b6000806040838503121561290357600080fd5b50508035926020909101359150565b60008060006060848603121561292757600080fd5b612930846128aa565b925061293e602085016128aa565b9150604084013590509250925092565b60006020828403121561296057600080fd5b5035919050565b8015158114610ea057600080fd5b60006020828403121561298757600080fd5b813561220d81612967565b600080600080608085870312156129a857600080fd5b6129b1856128aa565b93506129bf602086016128aa565b92506129cd604086016128aa565b91506129db606086016128aa565b905092959194509250565b6000602082840312156129f857600080fd5b61220d826128aa565b60008060408385031215612a1457600080fd5b612a1d836128aa565b91506020830135612a2d81612967565b809150509250929050565b60008060408385031215612a4b57600080fd5b82356128e281612967565b60008060408385031215612a6957600080fd5b612a72836128aa565b9150612a80602084016128aa565b90509250929050565b600181811c90821680612a9d57607f821691505b6020821081036114bf57634e487b7160e01b600052602260045260246000fd5b600080600060608486031215612ad257600080fd5b8351925060208401519150604084015190509250925092565b634e487b7160e01b600052601160045260246000fd5b6000816000190483118215151615612b1b57612b1b612aeb565b500290565b600082612b3d57634e487b7160e01b600052601260045260246000fd5b500490565b600060208284031215612b5457600080fd5b5051919050565b60008219821115612b6e57612b6e612aeb565b500190565b600082821015612b8557612b85612aeb565b500390565b600060208284031215612b9c57600080fd5b815161220d81612967565b6020808252818101527f4f776e61626c653a2063616c6c6572206973206e6f7420746865206f776e6572604082015260600190565b60006040820184835260206040818501528185548084526060860191508660005282600020935060005b81811015612c2b5784546001600160a01b031683526001948501949284019201612c06565b5090979650505050505050565b634e487b7160e01b600052604160045260246000fd5b60006020808385031215612c6157600080fd5b825167ffffffffffffffff80821115612c7957600080fd5b818501915085601f830112612c8d57600080fd5b815181811115612c9f57612c9f612c38565b8060051b604051601f19603f83011681018181108582111715612cc457612cc4612c38565b604052918252848201925083810185019188831115612ce257600080fd5b938501935b82851015612d0057845184529385019392850192612ce7565b98975050505050505050565b634e487b7160e01b600052603260045260246000fd5b600060018201612d3457612d34612aeb565b5060010190565b600060a082018783526020878185015260a0604085015281875180845260c086019150828901935060005b81811015612d8b5784516001600160a01b031683529383019391830191600101612d66565b50506001600160a01b0396909616606085015250505060800152939250505056feddf252ad1be2c89b69c2b068fc378daa952ba7f163c4a11628f55a4df523b3efa264697066735822122080e401871c4bd5ee3ee628e9fbb5fc27da6ceab6f15e93910e12e7aaf2730b7564736f6c634300080d0033",
    "bytecodeSha1": "0c70654b61278e364bc319a28574ebdd82928788",
    "type": "contract",
    "abi": [
        {
            "inputs": [
                {
                    "internalType": "address",
                    "name": "_busd",
                    "type": "address"
                },
                {
                    "internalType": "address",
                    "name": "_presaleContract",
                    "type": "address"
                },
                {
                    "internalType": "address",
                    "name": "_router",
                    "type": "address"
                },
                {
                    "internalType": "uint256",
                    "name": "_presaleSupply",
                    "type": "uint256"
                }
            ],
            "stateMutability": "nonpayable",
            "type": "constructor",
            "name": "constructor"
        },
        {
            "anonymous": false,
            "inputs": [
                {
                    "indexed": true,
                    "internalType": "address",
                    "name": "owner",
                    "type": "address"
                },
                {
                    "indexed": true,
                    "internalType": "address",
                    "name": "spender",
                    "type": "address"
                },
                {
                    "indexed": false,
                    "internalType": "uint256",
                    "name": "value",
                    "type": "uint256"
                }
            ],
            "name": "Approval",
            "type": "event"
        },
        {
            "anonymous": false,
            "inputs": [
                {
                    "indexed": false,
                    "internalType": "uint256",
                    "name": "time",
                    "type": "uint256"
                },
                {
                    "indexed": false,
                    "internalType": "uint256",
                    "name": "amount",
                    "type": "uint256"
                }
            ],
            "name": "BurnPCS",
            "type": "event"
        },
        {
            "anonymous": false,
            "inputs": [
                {
                    "indexed": false,
                    "internalType": "address",
                    "name": "_receiver",
                    "type": "address"
                }
            ],
            "name": "ClearStuckBalance",
            "type": "event"
        },
        {
            "anonymous": false,
            "inputs": [
                {
                    "indexed": false,
                    "internalType": "address",
                    "name": "_pair",
                    "type": "address"
                },
                {
                    "indexed": false,
                    "internalType": "uint256",
                    "name": "time",
                    "type": "uint256"
                }
            ],
            "name": "NewMarketMakerPair",
            "type": "event"
        },
        {
            "anonymous": false,
            "inputs": [
                {
                    "indexed": true,
                    "internalType": "address",
                    "name": "previousOwner",
                    "type": "address"
                },
                {
                    "indexed": true,
                    "internalType": "address",
                    "name": "newOwner",
                    "type": "address"
                }
            ],
            "name": "OwnershipTransferred",
            "type": "event"
        },
        {
            "anonymous": false,
            "inputs": [
                {
                    "indexed": false,
                    "internalType": "uint256",
                    "name": "time",
                    "type": "uint256"
                },
                {
                    "indexed": false,
                    "internalType": "address",
                    "name": "sender",
                    "type": "address"
                }
            ],
            "name": "PresaleOpened",
            "type": "event"
        },
        {
            "anonymous": false,
            "inputs": [
                {
                    "indexed": false,
                    "internalType": "bool",
                    "name": "_over",
                    "type": "bool"
                }
            ],
            "name": "PresaleOver",
            "type": "event"
        },
        {
            "anonymous": false,
            "inputs": [
                {
                    "indexed": false,
                    "internalType": "address",
                    "name": "receiver",
                    "type": "address"
                },
                {
                    "indexed": false,
                    "internalType": "uint256",
                    "name": "amount",
                    "type": "uint256"
                }
            ],
            "name": "PresaleWithdrawn",
            "type": "event"
        },
        {
            "anonymous": false,
            "inputs": [
                {
                    "indexed": false,
                    "internalType": "address",
                    "name": "_addr",
                    "type": "address"
                },
                {
                    "indexed": false,
                    "internalType": "bool",
                    "name": "_value",
                    "type": "bool"
                }
            ],
            "name": "SetFeeExempted",
            "type": "event"
        },
        {
            "anonymous": false,
            "inputs": [
                {
                    "indexed": false,
                    "internalType": "address",
                    "name": "_liquidityReceiver",
                    "type": "address"
                },
                {
                    "indexed": false,
                    "internalType": "address",
                    "name": "_treasuryReceiver",
                    "type": "address"
                },
                {
                    "indexed": false,
                    "internalType": "address",
                    "name": "_riskFreeValueReceiver",
                    "type": "address"
                },
                {
                    "indexed": false,
                    "internalType": "address",
                    "name": "_marketing",
                    "type": "address"
                }
            ],
            "name": "SetFeeReceivers",
            "type": "event"
        },
        {
            "anonymous": false,
            "inputs": [
                {
                    "indexed": false,
                    "internalType": "uint256",
                    "name": "contractTokenBalance",
                    "type": "uint256"
                },
                {
                    "indexed": false,
                    "internalType": "uint256",
                    "name": "amountToLiquify",
                    "type": "uint256"
                },
                {
                    "indexed": false,
                    "internalType": "uint256",
                    "name": "amountToRFV",
                    "type": "uint256"
                },
                {
                    "indexed": false,
                    "internalType": "uint256",
                    "name": "amountToDevMarketing",
                    "type": "uint256"
                },
                {
                    "indexed": false,
                    "internalType": "uint256",
                    "name": "amountToTreasury",
                    "type": "uint256"
                },
                {
                    "indexed": false,
                    "internalType": "bool",
                    "name": "buy",
                    "type": "bool"
                }
            ],
            "name": "SwapBack",
            "type": "event"
        },
        {
            "anonymous": false,
            "inputs": [
                {
                    "indexed": false,
                    "internalType": "bool",
                    "name": "enabled",
                    "type": "bool"
                }
            ],
            "name": "SwappingStateChanged",
            "type": "event"
        },
        {
            "anonymous": false,
            "inputs": [
                {
                    "indexed": true,
                    "internalType": "address",
                    "name": "from",
                    "type": "address"
                },
                {
                    "indexed": true,
                    "internalType": "address",
                    "name": "to",
                    "type": "address"
                },
                {
                    "indexed": false,
                    "internalType": "uint256",
                    "name": "value",
                    "type": "uint256"
                }
            ],
            "name": "Transfer",
            "type": "event"
        },
        {
            "anonymous": false,
            "inputs": [
                {
                    "indexed": false,
                    "internalType": "uint256",
                    "name": "time",
                    "type": "uint256"
                },
                {
                    "indexed": false,
                    "internalType": "uint256",
                    "name": "amount",
                    "type": "uint256"
                }
            ],
            "name": "WalletTransfers",
            "type": "event"
        },
        {
            "inputs": [
                {
                    "internalType": "bool",
                    "name": "isBuy",
                    "type": "bool"
                },
                {
                    "internalType": "uint256",
                    "name": "_fee",
                    "type": "uint256"
                }
            ],
            "name": "ILPTransferFees",
            "outputs": [],
            "stateMutability": "nonpayable",
            "type": "function"
        },
        {
            "inputs": [],
            "name": "_calcPCSPrice",
            "outputs": [
                {
                    "internalType": "uint256",
                    "name": "",
                    "type": "uint256"
                }
            ],
            "stateMutability": "view",
            "type": "function"
        },
        {
            "inputs": [
                {
                    "internalType": "uint256",
                    "name": "tokenA",
                    "type": "uint256"
                },
                {
                    "internalType": "uint256",
                    "name": "tokenB",
                    "type": "uint256"
                }
            ],
            "name": "addInitialLiquidity",
            "outputs": [],
            "stateMutability": "nonpayable",
            "type": "function"
        },
        {
            "inputs": [
                {
                    "internalType": "uint256",
                    "name": "tokenAmount",
                    "type": "uint256"
                },
                {
                    "internalType": "uint256",
                    "name": "busdAmount",
                    "type": "uint256"
                }
            ],
            "name": "addLiquidityBusd",
            "outputs": [],
            "stateMutability": "nonpayable",
            "type": "function"
        },
        {
            "inputs": [
                {
                    "internalType": "address",
                    "name": "owner",
                    "type": "address"
                },
                {
                    "internalType": "address",
                    "name": "spender",
                    "type": "address"
                }
            ],
            "name": "allowance",
            "outputs": [
                {
                    "internalType": "uint256",
                    "name": "",
                    "type": "uint256"
                }
            ],
            "stateMutability": "view",
            "type": "function"
        },
        {
            "inputs": [
                {
                    "internalType": "address",
                    "name": "spender",
                    "type": "address"
                },
                {
                    "internalType": "uint256",
                    "name": "amount",
                    "type": "uint256"
                }
            ],
            "name": "approve",
            "outputs": [
                {
                    "internalType": "bool",
                    "name": "",
                    "type": "bool"
                }
            ],
            "stateMutability": "nonpayable",
            "type": "function"
        },
        {
            "inputs": [
                {
                    "internalType": "address",
                    "name": "who",
                    "type": "address"
                }
            ],
            "name": "balanceOf",
            "outputs": [
                {
                    "internalType": "uint256",
                    "name": "",
                    "type": "uint256"
                }
            ],
            "stateMutability": "view",
            "type": "function"
        },
        {
            "inputs": [
                {
                    "internalType": "uint256",
                    "name": "amount",
                    "type": "uint256"
                }
            ],
            "name": "burn",
            "outputs": [],
            "stateMutability": "nonpayable",
            "type": "function"
        },
        {
            "inputs": [
                {
                    "internalType": "address",
                    "name": "account",
                    "type": "address"
                },
                {
                    "internalType": "uint256",
                    "name": "amount",
                    "type": "uint256"
                }
            ],
            "name": "burnFrom",
            "outputs": [],
            "stateMutability": "nonpayable",
            "type": "function"
        },
        {
            "inputs": [
                {
                    "internalType": "address",
                    "name": "holder",
                    "type": "address"
                },
                {
                    "internalType": "uint256",
                    "name": "amount",
                    "type": "uint256"
                }
            ],
            "name": "burnFromPool",
            "outputs": [],
            "stateMutability": "nonpayable",
            "type": "function"
        },
        {
            "inputs": [],
            "name": "busd",
            "outputs": [
                {
                    "internalType": "address",
                    "name": "",
                    "type": "address"
                }
            ],
            "stateMutability": "view",
            "type": "function"
        },
        {
            "inputs": [
                {
                    "internalType": "address",
                    "name": "_from",
                    "type": "address"
                }
            ],
            "name": "canEvolve",
            "outputs": [
                {
                    "internalType": "bool",
                    "name": "evolve",
                    "type": "bool"
                }
            ],
            "stateMutability": "view",
            "type": "function"
        },
        {
            "inputs": [
                {
                    "internalType": "uint256",
                    "name": "_fee",
                    "type": "uint256"
                }
            ],
            "name": "canSwapFees",
            "outputs": [
                {
                    "internalType": "bool",
                    "name": "canswap",
                    "type": "bool"
                }
            ],
            "stateMutability": "view",
            "type": "function"
        },
        {
            "inputs": [
                {
                    "internalType": "uint256",
                    "name": "newSwapTreshold",
                    "type": "uint256"
                }
            ],
            "name": "changeSwapTreshold",
            "outputs": [],
            "stateMutability": "nonpayable",
            "type": "function"
        },
        {
            "inputs": [],
            "name": "charityWallet",
            "outputs": [
                {
                    "internalType": "address",
                    "name": "",
                    "type": "address"
                }
            ],
            "stateMutability": "view",
            "type": "function"
        },
        {
            "inputs": [
                {
                    "internalType": "address",
                    "name": "_addr",
                    "type": "address"
                }
            ],
            "name": "checkFeeExempt",
            "outputs": [
                {
                    "internalType": "bool",
                    "name": "",
                    "type": "bool"
                }
            ],
            "stateMutability": "view",
            "type": "function"
        },
        {
            "inputs": [
                {
                    "internalType": "address",
                    "name": "_receiver",
                    "type": "address"
                }
            ],
            "name": "clearStuckFees",
            "outputs": [],
            "stateMutability": "nonpayable",
            "type": "function"
        },
        {
            "inputs": [],
            "name": "decimals",
            "outputs": [
                {
                    "internalType": "uint8",
                    "name": "",
                    "type": "uint8"
                }
            ],
            "stateMutability": "view",
            "type": "function"
        },
        {
            "inputs": [
                {
                    "internalType": "address",
                    "name": "spender",
                    "type": "address"
                },
                {
                    "internalType": "uint256",
                    "name": "subtractedValue",
                    "type": "uint256"
                }
            ],
            "name": "decreaseAllowance",
            "outputs": [
                {
                    "internalType": "bool",
                    "name": "",
                    "type": "bool"
                }
            ],
            "stateMutability": "nonpayable",
            "type": "function"
        },
        {
            "inputs": [],
            "name": "devAndMarketingWallet",
            "outputs": [
                {
                    "internalType": "address",
                    "name": "",
                    "type": "address"
                }
            ],
            "stateMutability": "view",
            "type": "function"
        },
        {
            "inputs": [],
            "name": "feeCollectedBusd",
            "outputs": [
                {
                    "internalType": "uint256",
                    "name": "",
                    "type": "uint256"
                }
            ],
            "stateMutability": "view",
            "type": "function"
        },
        {
            "inputs": [],
            "name": "feeCollectedSpice",
            "outputs": [
                {
                    "internalType": "uint256",
                    "name": "",
                    "type": "uint256"
                }
            ],
            "stateMutability": "view",
            "type": "function"
        },
        {
            "inputs": [],
            "name": "fetchPCSPrice",
            "outputs": [
                {
                    "internalType": "uint256",
                    "name": "",
                    "type": "uint256"
                }
            ],
            "stateMutability": "view",
            "type": "function"
        },
        {
            "inputs": [
                {
                    "internalType": "address",
                    "name": "spender",
                    "type": "address"
                },
                {
                    "internalType": "uint256",
                    "name": "addedValue",
                    "type": "uint256"
                }
            ],
            "name": "increaseAllowance",
            "outputs": [
                {
                    "internalType": "bool",
                    "name": "",
                    "type": "bool"
                }
            ],
            "stateMutability": "nonpayable",
            "type": "function"
        },
        {
            "inputs": [],
            "name": "liqudityHandlerWallet",
            "outputs": [
                {
                    "internalType": "address",
                    "name": "",
                    "type": "address"
                }
            ],
            "stateMutability": "view",
            "type": "function"
        },
        {
            "inputs": [],
            "name": "liquidityReceiver",
            "outputs": [
                {
                    "internalType": "address",
                    "name": "",
                    "type": "address"
                }
            ],
            "stateMutability": "view",
            "type": "function"
        },
        {
            "inputs": [],
            "name": "manualSync",
            "outputs": [],
            "stateMutability": "nonpayable",
            "type": "function"
        },
        {
            "inputs": [],
            "name": "name",
            "outputs": [
                {
                    "internalType": "string",
                    "name": "",
                    "type": "string"
                }
            ],
            "stateMutability": "view",
            "type": "function"
        },
        {
            "inputs": [],
            "name": "owner",
            "outputs": [
                {
                    "internalType": "address",
                    "name": "",
                    "type": "address"
                }
            ],
            "stateMutability": "view",
            "type": "function"
        },
        {
            "inputs": [],
            "name": "pairBusd",
            "outputs": [
                {
                    "internalType": "address",
                    "name": "",
                    "type": "address"
                }
            ],
            "stateMutability": "view",
            "type": "function"
        },
        {
            "inputs": [],
            "name": "presaleOpen",
            "outputs": [
                {
                    "internalType": "bool",
                    "name": "",
                    "type": "bool"
                }
            ],
            "stateMutability": "view",
            "type": "function"
        },
        {
            "inputs": [],
            "name": "presaleOver",
            "outputs": [
                {
                    "internalType": "bool",
                    "name": "",
                    "type": "bool"
                }
            ],
            "stateMutability": "view",
            "type": "function"
        },
        {
            "inputs": [],
            "name": "presalePrice",
            "outputs": [
                {
                    "internalType": "uint256",
                    "name": "",
                    "type": "uint256"
                }
            ],
            "stateMutability": "view",
            "type": "function"
        },
        {
            "inputs": [],
            "name": "presaleTimer",
            "outputs": [
                {
                    "internalType": "uint256",
                    "name": "",
                    "type": "uint256"
                }
            ],
            "stateMutability": "view",
            "type": "function"
        },
        {
            "inputs": [
                {
                    "internalType": "uint256",
                    "name": "busdAmount",
                    "type": "uint256"
                }
            ],
            "name": "purchaseFromThis",
            "outputs": [],
            "stateMutability": "nonpayable",
            "type": "function"
        },
        {
            "inputs": [],
            "name": "renounceOwnership",
            "outputs": [],
            "stateMutability": "nonpayable",
            "type": "function"
        },
        {
            "inputs": [
                {
                    "internalType": "uint256",
                    "name": "spiceAmount",
                    "type": "uint256"
                }
            ],
            "name": "sellToThis",
            "outputs": [],
            "stateMutability": "nonpayable",
            "type": "function"
        },
        {
            "inputs": [
                {
                    "internalType": "address",
                    "name": "_addr",
                    "type": "address"
                },
                {
                    "internalType": "bool",
                    "name": "_value",
                    "type": "bool"
                }
            ],
            "name": "setFeeExempt",
            "outputs": [],
            "stateMutability": "nonpayable",
            "type": "function"
        },
        {
            "inputs": [
                {
                    "internalType": "address",
                    "name": "_liquidityReceiver",
                    "type": "address"
                },
                {
                    "internalType": "address",
                    "name": "_treasuryReceiver",
                    "type": "address"
                },
                {
                    "internalType": "address",
                    "name": "_charityValueReceiver",
                    "type": "address"
                },
                {
                    "internalType": "address",
                    "name": "_devAndMarketing",
                    "type": "address"
                }
            ],
            "name": "setFeeReceivers",
            "outputs": [],
            "stateMutability": "nonpayable",
            "type": "function"
        },
        {
            "inputs": [
                {
                    "internalType": "address",
                    "name": "_pair",
                    "type": "address"
                },
                {
                    "internalType": "bool",
                    "name": "_value",
                    "type": "bool"
                }
            ],
            "name": "setNewMarketMakerPair",
            "outputs": [],
            "stateMutability": "nonpayable",
            "type": "function"
        },
        {
            "inputs": [
                {
                    "internalType": "address",
                    "name": "_presaleC",
                    "type": "address"
                }
            ],
            "name": "setPresaleWallet",
            "outputs": [],
            "stateMutability": "nonpayable",
            "type": "function"
        },
        {
            "inputs": [
                {
                    "internalType": "uint256",
                    "name": "_fee",
                    "type": "uint256"
                }
            ],
            "name": "swapAndTransferFees",
            "outputs": [],
            "stateMutability": "nonpayable",
            "type": "function"
        },
        {
            "inputs": [],
            "name": "symbol",
            "outputs": [
                {
                    "internalType": "string",
                    "name": "",
                    "type": "string"
                }
            ],
            "stateMutability": "view",
            "type": "function"
        },
        {
            "inputs": [
                {
                    "internalType": "bool",
                    "name": "isEnabled",
                    "type": "bool"
                }
            ],
            "name": "toggleEvolution",
            "outputs": [],
            "stateMutability": "nonpayable",
            "type": "function"
        },
        {
            "inputs": [
                {
                    "internalType": "bool",
                    "name": "isEnabled",
                    "type": "bool"
                }
            ],
            "name": "toggleFeeSwapping",
            "outputs": [],
            "stateMutability": "nonpayable",
            "type": "function"
        },
        {
            "inputs": [],
            "name": "totalBuyFee",
            "outputs": [
                {
                    "internalType": "uint256",
                    "name": "",
                    "type": "uint256"
                }
            ],
            "stateMutability": "view",
            "type": "function"
        },
        {
            "inputs": [],
            "name": "totalSellFee",
            "outputs": [
                {
                    "internalType": "uint256",
                    "name": "",
                    "type": "uint256"
                }
            ],
            "stateMutability": "view",
            "type": "function"
        },
        {
            "inputs": [],
            "name": "totalSupply",
            "outputs": [
                {
                    "internalType": "uint256",
                    "name": "",
                    "type": "uint256"
                }
            ],
            "stateMutability": "view",
            "type": "function"
        },
        {
            "inputs": [
                {
                    "internalType": "address",
                    "name": "to",
                    "type": "address"
                },
                {
                    "internalType": "uint256",
                    "name": "amount",
                    "type": "uint256"
                }
            ],
            "name": "transfer",
            "outputs": [
                {
                    "internalType": "bool",
                    "name": "",
                    "type": "bool"
                }
            ],
            "stateMutability": "nonpayable",
            "type": "function"
        },
        {
            "inputs": [
                {
                    "internalType": "address",
                    "name": "from",
                    "type": "address"
                },
                {
                    "internalType": "address",
                    "name": "to",
                    "type": "address"
                },
                {
                    "internalType": "uint256",
                    "name": "amount",
                    "type": "uint256"
                }
            ],
            "name": "transferFrom",
            "outputs": [
                {
                    "internalType": "bool",
                    "name": "",
                    "type": "bool"
                }
            ],
            "stateMutability": "nonpayable",
            "type": "function"
        },
        {
            "inputs": [
                {
                    "internalType": "address",
                    "name": "newOwner",
                    "type": "address"
                }
            ],
            "name": "transferOwnership",
            "outputs": [],
            "stateMutability": "nonpayable",
            "type": "function"
        },
        {
            "inputs": [],
            "name": "treasuryWallet",
            "outputs": [
                {
                    "internalType": "address",
                    "name": "",
                    "type": "address"
                }
            ],
            "stateMutability": "view",
            "type": "function"
        }
    ],
    "compiler": {
        "version": "0.8.13+commit.abaa5c0e",
        "evm_version": "istanbul",
        "optimizer": {
            "enabled": true,
            "runs": 200
        }
    },
    "contractName": "Spice",
    "language": "Solidity",
    "natspec": {
        "methods": {
            "allowance(address,address)": {
                "details": "See {IERC20-allowance}."
            },
            "approve(address,uint256)": {
                "details": "See {IERC20-approve}. Requirements: - `spender` cannot be the zero address."
            },
            "burn(uint256)": {
                "details": "Destroys `amount` tokens from the caller. See {ERC20-_burn}."
            },
            "burnFrom(address,uint256)": {
                "details": "Destroys `amount` tokens from `account`, deducting from the caller's allowance. See {ERC20-_burn} and {ERC20-allowance}. Requirements: - the caller must have allowance for ``accounts``'s tokens of at least `amount`."
            },
            "decimals()": {
                "details": "Returns the number of decimals used to get its user representation. For example, if `decimals` equals `2`, a balance of `505` tokens should be displayed to a user as `5.05` (`505 / 10 ** 2`). Tokens usually opt for a value of 18, imitating the relationship between Ether and Wei. This is the value {ERC20} uses, unless this function is overridden; NOTE: This information is only used for _display_ purposes: it in no way affects any of the arithmetic of the contract, including {IERC20-balanceOf} and {IERC20-transfer}."
            },
            "decreaseAllowance(address,uint256)": {
                "details": "Atomically decreases the allowance granted to `spender` by the caller. This is an alternative to {approve} that can be used as a mitigation for problems described in {IERC20-approve}. Emits an {Approval} event indicating the updated allowance. Requirements: - `spender` cannot be the zero address. - `spender` must have allowance for the caller of at least `subtractedValue`."
            },
            "increaseAllowance(address,uint256)": {
                "details": "Atomically increases the allowance granted to `spender` by the caller. This is an alternative to {approve} that can be used as a mitigation for problems described in {IERC20-approve}. Emits an {Approval} event indicating the updated allowance. Requirements: - `spender` cannot be the zero address."
            },
            "name()": {
                "details": "Returns the name of the token."
            },
            "owner()": {
                "details": "Returns the address of the current owner."
            },
            "renounceOwnership()": {
                "details": "Leaves the contract without owner. It will not be possible to call `onlyOwner` functions anymore. Can only be called by the current owner. NOTE: Renouncing ownership will leave the contract without an owner, thereby removing any functionality that is only available to the owner."
            },
            "symbol()": {
                "details": "Returns the symbol of the token, usually a shorter version of the name."
            },
            "totalSupply()": {
                "details": "See {IERC20-totalSupply}."
            },
            "transferOwnership(address)": {
                "details": "Transfers ownership of the contract to a new account (`newOwner`). Can only be called by the current owner."
            }
        },
        "kind": "dev",
        "version": 1
    },
    "opcodes": "PUSH1 0x80 PUSH1 0x40 MSTORE CALLVALUE DUP1 ISZERO PUSH2 0x10 JUMPI PUSH1 0x0 DUP1 REVERT JUMPDEST POP PUSH1 0x4 CALLDATASIZE LT PUSH2 0x30B JUMPI PUSH1 0x0 CALLDATALOAD PUSH1 0xE0 SHR DUP1 PUSH4 0x7385D3E2 GT PUSH2 0x19D JUMPI DUP1 PUSH4 0xA9059CBB GT PUSH2 0xE9 JUMPI DUP1 PUSH4 0xC2C5035F GT PUSH2 0xA2 JUMPI DUP1 PUSH4 0xD4399790 GT PUSH2 0x7C JUMPI DUP1 PUSH4 0xD4399790 EQ PUSH2 0x66A JUMPI DUP1 PUSH4 0xDD62ED3E EQ PUSH2 0x696 JUMPI DUP1 PUSH4 0xECF0CEFB EQ PUSH2 0x6CF JUMPI DUP1 PUSH4 0xF2FDE38B EQ PUSH2 0x6E2 JUMPI PUSH1 0x0 DUP1 REVERT JUMPDEST DUP1 PUSH4 0xC2C5035F EQ PUSH2 0x631 JUMPI DUP1 PUSH4 0xC74A1958 EQ PUSH2 0x644 JUMPI DUP1 PUSH4 0xD07A091C EQ PUSH2 0x657 JUMPI PUSH1 0x0 DUP1 REVERT JUMPDEST DUP1 PUSH4 0xA9059CBB EQ PUSH2 0x5C5 JUMPI DUP1 PUSH4 0xAB7456F6 EQ PUSH2 0x5D8 JUMPI DUP1 PUSH4 0xAF280265 EQ PUSH2 0x5EB JUMPI DUP1 PUSH4 0xBA539AF9 EQ PUSH2 0x5FE JUMPI DUP1 PUSH4 0xBC52DA0B EQ PUSH2 0x611 JUMPI DUP1 PUSH4 0xBEE6348A EQ PUSH2 0x624 JUMPI PUSH1 0x0 DUP1 REVERT JUMPDEST DUP1 PUSH4 0x8EBFC796 GT PUSH2 0x156 JUMPI DUP1 PUSH4 0x9D9241EC GT PUSH2 0x130 JUMPI DUP1 PUSH4 0x9D9241EC EQ PUSH2 0x583 JUMPI DUP1 PUSH4 0xA2026F23 EQ PUSH2 0x58C JUMPI DUP1 PUSH4 0xA40F4FA1 EQ PUSH2 0x59F JUMPI DUP1 PUSH4 0xA457C2D7 EQ PUSH2 0x5B2 JUMPI PUSH1 0x0 DUP1 REVERT JUMPDEST DUP1 PUSH4 0x8EBFC796 EQ PUSH2 0x555 JUMPI DUP1 PUSH4 0x95D89B41 EQ PUSH2 0x568 JUMPI DUP1 PUSH4 0x9A73B941 EQ PUSH2 0x570 JUMPI PUSH1 0x0 DUP1 REVERT JUMPDEST DUP1 PUSH4 0x7385D3E2 EQ PUSH2 0x506 JUMPI DUP1 PUSH4 0x753D02A1 EQ PUSH2 0x50E JUMPI DUP1 PUSH4 0x79CC6790 EQ PUSH2 0x516 JUMPI DUP1 PUSH4 0x7B208769 EQ PUSH2 0x529 JUMPI DUP1 PUSH4 0x87A8F19D EQ PUSH2 0x53C JUMPI DUP1 PUSH4 0x8DA5CB5B EQ PUSH2 0x544 JUMPI PUSH1 0x0 DUP1 REVERT JUMPDEST DUP1 PUSH4 0x39509351 GT PUSH2 0x25C JUMPI DUP1 PUSH4 0x4738A883 GT PUSH2 0x215 JUMPI DUP1 PUSH4 0x59B107B9 GT PUSH2 0x1EF JUMPI DUP1 PUSH4 0x59B107B9 EQ PUSH2 0x4B9 JUMPI DUP1 PUSH4 0x5F282E95 EQ PUSH2 0x4C2 JUMPI DUP1 PUSH4 0x70A08231 EQ PUSH2 0x4D5 JUMPI DUP1 PUSH4 0x715018A6 EQ PUSH2 0x4FE JUMPI PUSH1 0x0 DUP1 REVERT JUMPDEST DUP1 PUSH4 0x4738A883 EQ PUSH2 0x48B JUMPI DUP1 PUSH4 0x47C1623D EQ PUSH2 0x49D JUMPI DUP1 PUSH4 0x5266C32F EQ PUSH2 0x4A6 JUMPI PUSH1 0x0 DUP1 REVERT JUMPDEST DUP1 PUSH4 0x39509351 EQ PUSH2 0x419 JUMPI DUP1 PUSH4 0x3C8E556D EQ PUSH2 0x42C JUMPI DUP1 PUSH4 0x3CA5B234 EQ PUSH2 0x43F JUMPI DUP1 PUSH4 0x42966C68 EQ PUSH2 0x452 JUMPI DUP1 PUSH4 0x45ADF74C EQ PUSH2 0x465 JUMPI DUP1 PUSH4 0x4626402B EQ PUSH2 0x478 JUMPI PUSH1 0x0 DUP1 REVERT JUMPDEST DUP1 PUSH4 0x18160DDD GT PUSH2 0x2C9 JUMPI DUP1 PUSH4 0x25E73F18 GT PUSH2 0x2A3 JUMPI DUP1 PUSH4 0x25E73F18 EQ PUSH2 0x3B9 JUMPI DUP1 PUSH4 0x264D26DD EQ PUSH2 0x3CC JUMPI DUP1 PUSH4 0x313CE567 EQ PUSH2 0x3F7 JUMPI DUP1 PUSH4 0x34B3092E EQ PUSH2 0x406 JUMPI PUSH1 0x0 DUP1 REVERT JUMPDEST DUP1 PUSH4 0x18160DDD EQ PUSH2 0x38B JUMPI DUP1 PUSH4 0x23B872DD EQ PUSH2 0x393 JUMPI DUP1 PUSH4 0x25714C97 EQ PUSH2 0x3A6 JUMPI PUSH1 0x0 DUP1 REVERT JUMPDEST DUP1 PUSH3 0xE7FA8 EQ PUSH2 0x310 JUMPI DUP1 PUSH4 0x6FDDE03 EQ PUSH2 0x32C JUMPI DUP1 PUSH4 0x95EA7B3 EQ PUSH2 0x341 JUMPI DUP1 PUSH4 0x1085E1F3 EQ PUSH2 0x364 JUMPI DUP1 PUSH4 0x128E0BFB EQ PUSH2 0x36D JUMPI DUP1 PUSH4 0x14654FF0 EQ PUSH2 0x382 JUMPI JUMPDEST PUSH1 0x0 DUP1 REVERT JUMPDEST PUSH2 0x319 PUSH1 0x17 SLOAD DUP2 JUMP JUMPDEST PUSH1 0x40 MLOAD SWAP1 DUP2 MSTORE PUSH1 0x20 ADD JUMPDEST PUSH1 0x40 MLOAD DUP1 SWAP2 SUB SWAP1 RETURN JUMPDEST PUSH2 0x334 PUSH2 0x6F5 JUMP JUMPDEST PUSH1 0x40 MLOAD PUSH2 0x323 SWAP2 SWAP1 PUSH2 0x2855 JUMP JUMPDEST PUSH2 0x354 PUSH2 0x34F CALLDATASIZE PUSH1 0x4 PUSH2 0x28C6 JUMP JUMPDEST PUSH2 0x787 JUMP JUMPDEST PUSH1 0x40 MLOAD SWAP1 ISZERO ISZERO DUP2 MSTORE PUSH1 0x20 ADD PUSH2 0x323 JUMP JUMPDEST PUSH2 0x319 PUSH1 0x18 SLOAD DUP2 JUMP JUMPDEST PUSH2 0x380 PUSH2 0x37B CALLDATASIZE PUSH1 0x4 PUSH2 0x28F0 JUMP JUMPDEST PUSH2 0x79E JUMP JUMPDEST STOP JUMPDEST PUSH2 0x319 PUSH1 0x19 SLOAD DUP2 JUMP JUMPDEST PUSH1 0x15 SLOAD PUSH2 0x319 JUMP JUMPDEST PUSH2 0x354 PUSH2 0x3A1 CALLDATASIZE PUSH1 0x4 PUSH2 0x2912 JUMP JUMPDEST PUSH2 0x84A JUMP JUMPDEST PUSH2 0x380 PUSH2 0x3B4 CALLDATASIZE PUSH1 0x4 PUSH2 0x294E JUMP JUMPDEST PUSH2 0x86E JUMP JUMPDEST PUSH2 0x380 PUSH2 0x3C7 CALLDATASIZE PUSH1 0x4 PUSH2 0x294E JUMP JUMPDEST PUSH2 0xAD0 JUMP JUMPDEST PUSH1 0x8 SLOAD PUSH2 0x3DF SWAP1 PUSH1 0x1 PUSH1 0x1 PUSH1 0xA0 SHL SUB AND DUP2 JUMP JUMPDEST PUSH1 0x40 MLOAD PUSH1 0x1 PUSH1 0x1 PUSH1 0xA0 SHL SUB SWAP1 SWAP2 AND DUP2 MSTORE PUSH1 0x20 ADD PUSH2 0x323 JUMP JUMPDEST PUSH1 0x40 MLOAD PUSH1 0x12 DUP2 MSTORE PUSH1 0x20 ADD PUSH2 0x323 JUMP JUMPDEST PUSH2 0x380 PUSH2 0x414 CALLDATASIZE PUSH1 0x4 PUSH2 0x2975 JUMP JUMPDEST PUSH2 0xC75 JUMP JUMPDEST PUSH2 0x354 PUSH2 0x427 CALLDATASIZE PUSH1 0x4 PUSH2 0x28C6 JUMP JUMPDEST PUSH2 0xCF5 JUMP JUMPDEST PUSH2 0x380 PUSH2 0x43A CALLDATASIZE PUSH1 0x4 PUSH2 0x2992 JUMP JUMPDEST PUSH2 0xD86 JUMP JUMPDEST PUSH1 0x7 SLOAD PUSH2 0x3DF SWAP1 PUSH1 0x1 PUSH1 0x1 PUSH1 0xA0 SHL SUB AND DUP2 JUMP JUMPDEST PUSH2 0x380 PUSH2 0x460 CALLDATASIZE PUSH1 0x4 PUSH2 0x294E JUMP JUMPDEST PUSH2 0xE96 JUMP JUMPDEST PUSH1 0xD SLOAD PUSH2 0x3DF SWAP1 PUSH1 0x1 PUSH1 0x1 PUSH1 0xA0 SHL SUB AND DUP2 JUMP JUMPDEST PUSH1 0xB SLOAD PUSH2 0x3DF SWAP1 PUSH1 0x1 PUSH1 0x1 PUSH1 0xA0 SHL SUB AND DUP2 JUMP JUMPDEST PUSH1 0x27 SLOAD PUSH2 0x354 SWAP1 PUSH2 0x100 SWAP1 DIV PUSH1 0xFF AND DUP2 JUMP JUMPDEST PUSH2 0x319 PUSH1 0x1A SLOAD DUP2 JUMP JUMPDEST PUSH1 0x9 SLOAD PUSH2 0x3DF SWAP1 PUSH1 0x1 PUSH1 0x1 PUSH1 0xA0 SHL SUB AND DUP2 JUMP JUMPDEST PUSH2 0x319 PUSH1 0x1D SLOAD DUP2 JUMP JUMPDEST PUSH2 0x380 PUSH2 0x4D0 CALLDATASIZE PUSH1 0x4 PUSH2 0x28C6 JUMP JUMPDEST PUSH2 0xEA3 JUMP JUMPDEST PUSH2 0x319 PUSH2 0x4E3 CALLDATASIZE PUSH1 0x4 PUSH2 0x29E6 JUMP JUMPDEST PUSH1 0x1 PUSH1 0x1 PUSH1 0xA0 SHL SUB AND PUSH1 0x0 SWAP1 DUP2 MSTORE PUSH1 0xF PUSH1 0x20 MSTORE PUSH1 0x40 SWAP1 KECCAK256 SLOAD SWAP1 JUMP JUMPDEST PUSH2 0x380 PUSH2 0xF10 JUMP JUMPDEST PUSH2 0x319 PUSH2 0xF46 JUMP JUMPDEST PUSH2 0x380 PUSH2 0xFEE JUMP JUMPDEST PUSH2 0x380 PUSH2 0x524 CALLDATASIZE PUSH1 0x4 PUSH2 0x28C6 JUMP JUMPDEST PUSH2 0x1084 JUMP JUMPDEST PUSH1 0xC SLOAD PUSH2 0x3DF SWAP1 PUSH1 0x1 PUSH1 0x1 PUSH1 0xA0 SHL SUB AND DUP2 JUMP JUMPDEST PUSH2 0x319 PUSH2 0x1105 JUMP JUMPDEST PUSH1 0x5 SLOAD PUSH1 0x1 PUSH1 0x1 PUSH1 0xA0 SHL SUB AND PUSH2 0x3DF JUMP JUMPDEST PUSH2 0x380 PUSH2 0x563 CALLDATASIZE PUSH1 0x4 PUSH2 0x2A01 JUMP JUMPDEST PUSH2 0x11BD JUMP JUMPDEST PUSH2 0x334 PUSH2 0x12A9 JUMP JUMPDEST PUSH2 0x380 PUSH2 0x57E CALLDATASIZE PUSH1 0x4 PUSH2 0x2A01 JUMP JUMPDEST PUSH2 0x12B8 JUMP JUMPDEST PUSH2 0x319 PUSH1 0x1E SLOAD DUP2 JUMP JUMPDEST PUSH2 0x354 PUSH2 0x59A CALLDATASIZE PUSH1 0x4 PUSH2 0x29E6 JUMP JUMPDEST PUSH2 0x13B3 JUMP JUMPDEST PUSH2 0x380 PUSH2 0x5AD CALLDATASIZE PUSH1 0x4 PUSH2 0x28F0 JUMP JUMPDEST PUSH2 0x14C5 JUMP JUMPDEST PUSH2 0x354 PUSH2 0x5C0 CALLDATASIZE PUSH1 0x4 PUSH2 0x28C6 JUMP JUMPDEST PUSH2 0x153E JUMP JUMPDEST PUSH2 0x354 PUSH2 0x5D3 CALLDATASIZE PUSH1 0x4 PUSH2 0x28C6 JUMP JUMPDEST PUSH2 0x1625 JUMP JUMPDEST PUSH2 0x354 PUSH2 0x5E6 CALLDATASIZE PUSH1 0x4 PUSH2 0x294E JUMP JUMPDEST PUSH2 0x163D JUMP JUMPDEST PUSH2 0x380 PUSH2 0x5F9 CALLDATASIZE PUSH1 0x4 PUSH2 0x2A38 JUMP JUMPDEST PUSH2 0x16F3 JUMP JUMPDEST PUSH2 0x380 PUSH2 0x60C CALLDATASIZE PUSH1 0x4 PUSH2 0x2975 JUMP JUMPDEST PUSH2 0x19D9 JUMP JUMPDEST PUSH2 0x380 PUSH2 0x61F CALLDATASIZE PUSH1 0x4 PUSH2 0x294E JUMP JUMPDEST PUSH2 0x1A50 JUMP JUMPDEST PUSH1 0x27 SLOAD PUSH2 0x354 SWAP1 PUSH1 0xFF AND DUP2 JUMP JUMPDEST PUSH2 0x380 PUSH2 0x63F CALLDATASIZE PUSH1 0x4 PUSH2 0x29E6 JUMP JUMPDEST PUSH2 0x1AD7 JUMP JUMPDEST PUSH1 0xA SLOAD PUSH2 0x3DF SWAP1 PUSH1 0x1 PUSH1 0x1 PUSH1 0xA0 SHL SUB AND DUP2 JUMP JUMPDEST PUSH2 0x380 PUSH2 0x665 CALLDATASIZE PUSH1 0x4 PUSH2 0x29E6 JUMP JUMPDEST PUSH2 0x1B4D JUMP JUMPDEST PUSH2 0x354 PUSH2 0x678 CALLDATASIZE PUSH1 0x4 PUSH2 0x29E6 JUMP JUMPDEST PUSH1 0x1 PUSH1 0x1 PUSH1 0xA0 SHL SUB AND PUSH1 0x0 SWAP1 DUP2 MSTORE PUSH1 0x10 PUSH1 0x20 MSTORE PUSH1 0x40 SWAP1 KECCAK256 SLOAD PUSH1 0xFF AND SWAP1 JUMP JUMPDEST PUSH2 0x319 PUSH2 0x6A4 CALLDATASIZE PUSH1 0x4 PUSH2 0x2A56 JUMP JUMPDEST PUSH1 0x1 PUSH1 0x1 PUSH1 0xA0 SHL SUB SWAP2 DUP3 AND PUSH1 0x0 SWAP1 DUP2 MSTORE PUSH1 0x12 PUSH1 0x20 SWAP1 DUP2 MSTORE PUSH1 0x40 DUP1 DUP4 KECCAK256 SWAP4 SWAP1 SWAP5 AND DUP3 MSTORE SWAP2 SWAP1 SWAP2 MSTORE KECCAK256 SLOAD SWAP1 JUMP JUMPDEST PUSH2 0x380 PUSH2 0x6DD CALLDATASIZE PUSH1 0x4 PUSH2 0x294E JUMP JUMPDEST PUSH2 0x1BA5 JUMP JUMPDEST PUSH2 0x380 PUSH2 0x6F0 CALLDATASIZE PUSH1 0x4 PUSH2 0x29E6 JUMP JUMPDEST PUSH2 0x1CD1 JUMP JUMPDEST PUSH1 0x60 PUSH1 0x3 DUP1 SLOAD PUSH2 0x704 SWAP1 PUSH2 0x2A89 JUMP JUMPDEST DUP1 PUSH1 0x1F ADD PUSH1 0x20 DUP1 SWAP2 DIV MUL PUSH1 0x20 ADD PUSH1 0x40 MLOAD SWAP1 DUP2 ADD PUSH1 0x40 MSTORE DUP1 SWAP3 SWAP2 SWAP1 DUP2 DUP2 MSTORE PUSH1 0x20 ADD DUP3 DUP1 SLOAD PUSH2 0x730 SWAP1 PUSH2 0x2A89 JUMP JUMPDEST DUP1 ISZERO PUSH2 0x77D JUMPI DUP1 PUSH1 0x1F LT PUSH2 0x752 JUMPI PUSH2 0x100 DUP1 DUP4 SLOAD DIV MUL DUP4 MSTORE SWAP2 PUSH1 0x20 ADD SWAP2 PUSH2 0x77D JUMP JUMPDEST DUP3 ADD SWAP2 SWAP1 PUSH1 0x0 MSTORE PUSH1 0x20 PUSH1 0x0 KECCAK256 SWAP1 JUMPDEST DUP2 SLOAD DUP2 MSTORE SWAP1 PUSH1 0x1 ADD SWAP1 PUSH1 0x20 ADD DUP1 DUP4 GT PUSH2 0x760 JUMPI DUP3 SWAP1 SUB PUSH1 0x1F AND DUP3 ADD SWAP2 JUMPDEST POP POP POP POP POP SWAP1 POP SWAP1 JUMP JUMPDEST PUSH1 0x0 PUSH2 0x794 CALLER DUP5 DUP5 PUSH2 0x1D69 JUMP JUMPDEST POP PUSH1 0x1 JUMPDEST SWAP3 SWAP2 POP POP JUMP JUMPDEST PUSH1 0x6 SLOAD PUSH1 0x7 SLOAD PUSH1 0xD SLOAD PUSH1 0x40 MLOAD PUSH3 0xE8E337 PUSH1 0xE8 SHL DUP2 MSTORE ADDRESS PUSH1 0x4 DUP3 ADD MSTORE PUSH1 0x1 PUSH1 0x1 PUSH1 0xA0 SHL SUB SWAP3 DUP4 AND PUSH1 0x24 DUP3 ADD MSTORE PUSH1 0x44 DUP2 ADD DUP7 SWAP1 MSTORE PUSH1 0x64 DUP2 ADD DUP6 SWAP1 MSTORE PUSH1 0x0 PUSH1 0x84 DUP3 ADD DUP2 SWAP1 MSTORE PUSH1 0xA4 DUP3 ADD MSTORE SWAP1 DUP3 AND PUSH1 0xC4 DUP3 ADD MSTORE TIMESTAMP PUSH1 0xE4 DUP3 ADD MSTORE SWAP2 AND SWAP1 PUSH4 0xE8E33700 SWAP1 PUSH2 0x104 ADD PUSH1 0x60 PUSH1 0x40 MLOAD DUP1 DUP4 SUB DUP2 PUSH1 0x0 DUP8 GAS CALL ISZERO DUP1 ISZERO PUSH2 0x81F JUMPI RETURNDATASIZE PUSH1 0x0 DUP1 RETURNDATACOPY RETURNDATASIZE PUSH1 0x0 REVERT JUMPDEST POP POP POP POP PUSH1 0x40 MLOAD RETURNDATASIZE PUSH1 0x1F NOT PUSH1 0x1F DUP3 ADD AND DUP3 ADD DUP1 PUSH1 0x40 MSTORE POP DUP2 ADD SWAP1 PUSH2 0x843 SWAP2 SWAP1 PUSH2 0x2ABD JUMP JUMPDEST POP POP POP POP POP JUMP JUMPDEST PUSH1 0x0 CALLER PUSH2 0x858 DUP6 DUP3 DUP6 PUSH2 0x1E8D JUMP JUMPDEST PUSH2 0x863 DUP6 DUP6 DUP6 PUSH2 0x1F19 JUMP JUMPDEST POP PUSH1 0x1 SWAP5 SWAP4 POP POP POP POP JUMP JUMPDEST PUSH1 0x0 DUP2 GT PUSH2 0x87B JUMPI PUSH1 0x0 DUP1 REVERT JUMPDEST PUSH1 0x0 PUSH2 0x885 PUSH2 0xF46 JUMP JUMPDEST SWAP1 POP PUSH1 0x0 PUSH8 0xDE0B6B3A7640000 PUSH2 0x89C DUP4 DUP6 PUSH2 0x2B01 JUMP JUMPDEST PUSH2 0x8A6 SWAP2 SWAP1 PUSH2 0x2B20 JUMP JUMPDEST PUSH1 0x7 SLOAD PUSH1 0x40 MLOAD PUSH4 0x70A08231 PUSH1 0xE0 SHL DUP2 MSTORE ADDRESS PUSH1 0x4 DUP3 ADD MSTORE SWAP2 SWAP3 POP PUSH1 0x0 SWAP2 PUSH1 0x1 PUSH1 0x1 PUSH1 0xA0 SHL SUB SWAP1 SWAP2 AND SWAP1 PUSH4 0x70A08231 SWAP1 PUSH1 0x24 ADD PUSH1 0x20 PUSH1 0x40 MLOAD DUP1 DUP4 SUB DUP2 DUP7 GAS STATICCALL ISZERO DUP1 ISZERO PUSH2 0x8F4 JUMPI RETURNDATASIZE PUSH1 0x0 DUP1 RETURNDATACOPY RETURNDATASIZE PUSH1 0x0 REVERT JUMPDEST POP POP POP POP PUSH1 0x40 MLOAD RETURNDATASIZE PUSH1 0x1F NOT PUSH1 0x1F DUP3 ADD AND DUP3 ADD DUP1 PUSH1 0x40 MSTORE POP DUP2 ADD SWAP1 PUSH2 0x918 SWAP2 SWAP1 PUSH2 0x2B42 JUMP JUMPDEST SWAP1 POP DUP1 DUP3 GT ISZERO PUSH2 0x983 JUMPI PUSH1 0x40 MLOAD PUSH3 0x461BCD PUSH1 0xE5 SHL DUP2 MSTORE PUSH1 0x20 PUSH1 0x4 DUP3 ADD MSTORE PUSH1 0x2B PUSH1 0x24 DUP3 ADD MSTORE PUSH32 0x696E73756666696369656E74206C697175696469747920696E2074686520696E PUSH1 0x44 DUP3 ADD MSTORE PUSH11 0x1D195C9B985B081C1BDBDB PUSH1 0xAA SHL PUSH1 0x64 DUP3 ADD MSTORE PUSH1 0x84 ADD JUMPDEST PUSH1 0x40 MLOAD DUP1 SWAP2 SUB SWAP1 REVERT JUMPDEST PUSH1 0x0 PUSH1 0x64 PUSH1 0x1E SLOAD DUP5 PUSH2 0x995 SWAP2 SWAP1 PUSH2 0x2B01 JUMP JUMPDEST PUSH2 0x99F SWAP2 SWAP1 PUSH2 0x2B20 JUMP JUMPDEST SWAP1 POP DUP1 PUSH1 0x1A PUSH1 0x0 DUP3 DUP3 SLOAD PUSH2 0x9B3 SWAP2 SWAP1 PUSH2 0x2B5B JUMP JUMPDEST SWAP1 SWAP2 SSTORE POP PUSH1 0x0 SWAP1 POP PUSH2 0x9C5 DUP3 DUP6 PUSH2 0x2B73 JUMP JUMPDEST CALLER PUSH1 0x0 SWAP1 DUP2 MSTORE PUSH1 0xF PUSH1 0x20 MSTORE PUSH1 0x40 DUP2 KECCAK256 DUP1 SLOAD SWAP3 SWAP4 POP DUP9 SWAP3 SWAP1 SWAP2 SWAP1 PUSH2 0x9E9 SWAP1 DUP5 SWAP1 PUSH2 0x2B73 JUMP JUMPDEST SWAP3 POP POP DUP2 SWAP1 SSTORE POP DUP6 PUSH1 0x15 PUSH1 0x0 DUP3 DUP3 SLOAD PUSH2 0xA02 SWAP2 SWAP1 PUSH2 0x2B73 JUMP JUMPDEST SWAP3 POP POP DUP2 SWAP1 SSTORE POP DUP4 PUSH1 0x26 PUSH1 0x0 DUP3 DUP3 SLOAD PUSH2 0xA1B SWAP2 SWAP1 PUSH2 0x2B73 JUMP JUMPDEST SWAP1 SWAP2 SSTORE POP PUSH2 0xA2C SWAP1 POP PUSH1 0x0 DUP6 PUSH2 0x16F3 JUMP JUMPDEST PUSH1 0x7 SLOAD PUSH1 0x40 MLOAD PUSH4 0xA9059CBB PUSH1 0xE0 SHL DUP2 MSTORE CALLER PUSH1 0x4 DUP3 ADD MSTORE PUSH1 0x24 DUP2 ADD DUP4 SWAP1 MSTORE PUSH1 0x1 PUSH1 0x1 PUSH1 0xA0 SHL SUB SWAP1 SWAP2 AND SWAP1 PUSH4 0xA9059CBB SWAP1 PUSH1 0x44 ADD PUSH1 0x20 PUSH1 0x40 MLOAD DUP1 DUP4 SUB DUP2 PUSH1 0x0 DUP8 GAS CALL ISZERO DUP1 ISZERO PUSH2 0xA7D JUMPI RETURNDATASIZE PUSH1 0x0 DUP1 RETURNDATACOPY RETURNDATASIZE PUSH1 0x0 REVERT JUMPDEST POP POP POP POP PUSH1 0x40 MLOAD RETURNDATASIZE PUSH1 0x1F NOT PUSH1 0x1F DUP3 ADD AND DUP3 ADD DUP1 PUSH1 0x40 MSTORE POP DUP2 ADD SWAP1 PUSH2 0xAA1 SWAP2 SWAP1 PUSH2 0x2B8A JUMP JUMPDEST POP PUSH1 0x40 MLOAD DUP7 DUP2 MSTORE PUSH1 0x0 SWAP1 CALLER SWAP1 PUSH1 0x0 DUP1 MLOAD PUSH1 0x20 PUSH2 0x2DAD DUP4 CODECOPY DUP2 MLOAD SWAP2 MSTORE SWAP1 PUSH1 0x20 ADD PUSH1 0x40 MLOAD DUP1 SWAP2 SUB SWAP1 LOG3 POP POP POP POP POP POP JUMP JUMPDEST PUSH1 0x0 PUSH1 0x1D SLOAD PUSH1 0x1E SLOAD PUSH2 0xAE2 SWAP2 SWAP1 PUSH2 0x2B5B JUMP JUMPDEST SWAP1 POP PUSH1 0x0 PUSH1 0x64 DUP3 PUSH2 0xB00 PUSH1 0x20 SLOAD PUSH1 0x23 SLOAD PUSH2 0x2201 SWAP1 SWAP2 SWAP1 PUSH4 0xFFFFFFFF AND JUMP JUMPDEST PUSH2 0xB0B SWAP1 PUSH1 0x64 PUSH2 0x2B01 JUMP JUMPDEST PUSH2 0xB15 SWAP2 SWAP1 PUSH2 0x2B20 JUMP JUMPDEST PUSH2 0xB1F SWAP1 DUP6 PUSH2 0x2B01 JUMP JUMPDEST PUSH2 0xB29 SWAP2 SWAP1 PUSH2 0x2B20 JUMP JUMPDEST SWAP1 POP PUSH1 0x0 PUSH1 0x64 DUP4 PUSH2 0xB47 PUSH1 0x1F SLOAD PUSH1 0x22 SLOAD PUSH2 0x2201 SWAP1 SWAP2 SWAP1 PUSH4 0xFFFFFFFF AND JUMP JUMPDEST PUSH2 0xB52 SWAP1 PUSH1 0x64 PUSH2 0x2B01 JUMP JUMPDEST PUSH2 0xB5C SWAP2 SWAP1 PUSH2 0x2B20 JUMP JUMPDEST PUSH2 0xB66 SWAP1 DUP7 PUSH2 0x2B01 JUMP JUMPDEST PUSH2 0xB70 SWAP2 SWAP1 PUSH2 0x2B20 JUMP JUMPDEST SWAP1 POP PUSH1 0x0 PUSH1 0x64 DUP5 PUSH1 0x21 SLOAD PUSH1 0x64 PUSH2 0xB86 SWAP2 SWAP1 PUSH2 0x2B01 JUMP JUMPDEST PUSH2 0xB90 SWAP2 SWAP1 PUSH2 0x2B20 JUMP JUMPDEST PUSH2 0xB9A SWAP1 DUP8 PUSH2 0x2B01 JUMP JUMPDEST PUSH2 0xBA4 SWAP2 SWAP1 PUSH2 0x2B20 JUMP JUMPDEST SWAP1 POP PUSH1 0x0 PUSH1 0x64 DUP6 PUSH1 0x24 SLOAD PUSH1 0x64 PUSH2 0xBBA SWAP2 SWAP1 PUSH2 0x2B01 JUMP JUMPDEST PUSH2 0xBC4 SWAP2 SWAP1 PUSH2 0x2B20 JUMP JUMPDEST PUSH2 0xBCE SWAP1 DUP9 PUSH2 0x2B01 JUMP JUMPDEST PUSH2 0xBD8 SWAP2 SWAP1 PUSH2 0x2B20 JUMP JUMPDEST PUSH1 0xB SLOAD SWAP1 SWAP2 POP PUSH2 0xBF2 SWAP1 DUP6 SWAP1 PUSH1 0x1 PUSH1 0x1 PUSH1 0xA0 SHL SUB AND PUSH2 0x2214 JUMP JUMPDEST PUSH1 0xD SLOAD PUSH2 0xC09 SWAP1 DUP5 SWAP1 PUSH1 0x1 PUSH1 0x1 PUSH1 0xA0 SHL SUB AND PUSH2 0x2214 JUMP JUMPDEST PUSH1 0xA SLOAD PUSH2 0xC20 SWAP1 DUP4 SWAP1 PUSH1 0x1 PUSH1 0x1 PUSH1 0xA0 SHL SUB AND PUSH2 0x2214 JUMP JUMPDEST PUSH1 0xC SLOAD PUSH2 0xC37 SWAP1 DUP3 SWAP1 PUSH1 0x1 PUSH1 0x1 PUSH1 0xA0 SHL SUB AND PUSH2 0x2214 JUMP JUMPDEST DUP1 DUP4 PUSH2 0xC43 DUP5 DUP8 PUSH2 0x2B5B JUMP JUMPDEST PUSH2 0xC4D SWAP2 SWAP1 PUSH2 0x2B5B JUMP JUMPDEST PUSH2 0xC57 SWAP2 SWAP1 PUSH2 0x2B5B JUMP JUMPDEST PUSH1 0x19 PUSH1 0x0 DUP3 DUP3 SLOAD PUSH2 0xC68 SWAP2 SWAP1 PUSH2 0x2B73 JUMP JUMPDEST SWAP1 SWAP2 SSTORE POP POP POP POP POP POP POP POP JUMP JUMPDEST PUSH1 0x5 SLOAD PUSH1 0x1 PUSH1 0x1 PUSH1 0xA0 SHL SUB AND CALLER EQ PUSH2 0xC9F JUMPI PUSH1 0x40 MLOAD PUSH3 0x461BCD PUSH1 0xE5 SHL DUP2 MSTORE PUSH1 0x4 ADD PUSH2 0x97A SWAP1 PUSH2 0x2BA7 JUMP JUMPDEST PUSH1 0x27 DUP1 SLOAD DUP3 ISZERO ISZERO PUSH3 0x10000 MUL PUSH3 0xFF0000 NOT SWAP1 SWAP2 AND OR SWAP1 SSTORE PUSH1 0x40 MLOAD PUSH32 0x87785C205BDECD32DDBCBEB016094641E4B43D5AAEE98563596B34883E659003 SWAP1 PUSH2 0xCEA SWAP1 DUP4 ISZERO ISZERO DUP2 MSTORE PUSH1 0x20 ADD SWAP1 JUMP JUMPDEST PUSH1 0x40 MLOAD DUP1 SWAP2 SUB SWAP1 LOG1 POP JUMP JUMPDEST CALLER PUSH1 0x0 SWAP1 DUP2 MSTORE PUSH1 0x12 PUSH1 0x20 SWAP1 DUP2 MSTORE PUSH1 0x40 DUP1 DUP4 KECCAK256 PUSH1 0x1 PUSH1 0x1 PUSH1 0xA0 SHL SUB DUP7 AND DUP5 MSTORE SWAP1 SWAP2 MSTORE DUP2 KECCAK256 SLOAD PUSH2 0xD23 SWAP1 DUP4 PUSH2 0x2201 JUMP JUMPDEST CALLER PUSH1 0x0 DUP2 DUP2 MSTORE PUSH1 0x12 PUSH1 0x20 SWAP1 DUP2 MSTORE PUSH1 0x40 DUP1 DUP4 KECCAK256 PUSH1 0x1 PUSH1 0x1 PUSH1 0xA0 SHL SUB DUP10 AND DUP1 DUP6 MSTORE SWAP1 DUP4 MSTORE SWAP3 DUP2 SWAP1 KECCAK256 DUP6 SWAP1 SSTORE MLOAD SWAP4 DUP5 MSTORE SWAP1 SWAP3 PUSH32 0x8C5BE1E5EBEC7D5BD14F71427D1E84F3DD0314C0F7B2291E5B200AC8C7C3B925 SWAP2 ADD PUSH1 0x40 MLOAD DUP1 SWAP2 SUB SWAP1 LOG3 POP PUSH1 0x1 SWAP3 SWAP2 POP POP JUMP JUMPDEST PUSH1 0x5 SLOAD PUSH1 0x1 PUSH1 0x1 PUSH1 0xA0 SHL SUB AND CALLER EQ PUSH2 0xDB0 JUMPI PUSH1 0x40 MLOAD PUSH3 0x461BCD PUSH1 0xE5 SHL DUP2 MSTORE PUSH1 0x4 ADD PUSH2 0x97A SWAP1 PUSH2 0x2BA7 JUMP JUMPDEST PUSH1 0xD DUP1 SLOAD PUSH1 0x1 PUSH1 0x1 PUSH1 0xA0 SHL SUB DUP7 DUP2 AND PUSH1 0x1 PUSH1 0x1 PUSH1 0xA0 SHL SUB NOT SWAP3 DUP4 AND DUP2 OR SWAP1 SWAP4 SSTORE PUSH1 0xB DUP1 SLOAD DUP8 DUP4 AND SWAP1 DUP5 AND DUP2 OR DUP3 SSTORE PUSH1 0xC DUP1 SLOAD DUP9 DUP6 AND SWAP1 DUP7 AND DUP2 OR DUP3 SSTORE PUSH1 0xA DUP1 SLOAD DUP10 DUP8 AND SWAP8 AND DUP8 OR DUP2 SSTORE PUSH1 0x0 DUP9 DUP2 MSTORE PUSH1 0x10 PUSH1 0x20 SWAP1 DUP2 MSTORE PUSH1 0x40 DUP1 DUP4 KECCAK256 DUP1 SLOAD PUSH1 0xFF NOT SWAP1 DUP2 AND PUSH1 0x1 SWAP1 DUP2 OR SWAP1 SWAP3 SSTORE SWAP9 SLOAD DUP11 AND DUP5 MSTORE DUP2 DUP5 KECCAK256 DUP1 SLOAD DUP11 AND DUP3 OR SWAP1 SSTORE SWAP6 SLOAD DUP10 AND DUP4 MSTORE DUP1 DUP4 KECCAK256 DUP1 SLOAD DUP10 AND DUP8 OR SWAP1 SSTORE SWAP3 SLOAD SWAP1 SWAP8 AND DUP2 MSTORE DUP2 SWAP1 KECCAK256 DUP1 SLOAD SWAP1 SWAP6 AND SWAP1 SWAP3 OR SWAP1 SWAP4 SSTORE DUP1 MLOAD SWAP6 DUP7 MSTORE SWAP3 DUP6 ADD MSTORE SWAP1 DUP4 ADD MSTORE PUSH1 0x60 DUP3 ADD MSTORE PUSH32 0x824F26A5A1C7F10B10915A7B3391149CF6BD9AF4FC0C2DA7E492FDAADC2E060 SWAP1 PUSH1 0x80 ADD PUSH1 0x40 MLOAD DUP1 SWAP2 SUB SWAP1 LOG1 POP POP POP POP JUMP JUMPDEST PUSH2 0xEA0 CALLER DUP3 PUSH2 0x2319 JUMP JUMPDEST POP JUMP JUMPDEST PUSH1 0x5 SLOAD PUSH1 0x1 PUSH1 0x1 PUSH1 0xA0 SHL SUB AND CALLER EQ PUSH2 0xECD JUMPI PUSH1 0x40 MLOAD PUSH3 0x461BCD PUSH1 0xE5 SHL DUP2 MSTORE PUSH1 0x4 ADD PUSH2 0x97A SWAP1 PUSH2 0x2BA7 JUMP JUMPDEST PUSH1 0x9 SLOAD PUSH1 0x1 PUSH1 0x1 PUSH1 0xA0 SHL SUB AND PUSH1 0x0 SWAP1 DUP2 MSTORE PUSH1 0xF PUSH1 0x20 MSTORE PUSH1 0x40 SWAP1 KECCAK256 SLOAD PUSH1 0x25 SLOAD DUP3 SWAP1 PUSH2 0xEF7 SWAP1 DUP4 PUSH2 0x2B73 JUMP JUMPDEST GT PUSH2 0xF01 JUMPI PUSH1 0x0 DUP1 REVERT JUMPDEST PUSH2 0xF0B DUP4 DUP4 PUSH2 0x2455 JUMP JUMPDEST POP POP POP JUMP JUMPDEST PUSH1 0x5 SLOAD PUSH1 0x1 PUSH1 0x1 PUSH1 0xA0 SHL SUB AND CALLER EQ PUSH2 0xF3A JUMPI PUSH1 0x40 MLOAD PUSH3 0x461BCD PUSH1 0xE5 SHL DUP2 MSTORE PUSH1 0x4 ADD PUSH2 0x97A SWAP1 PUSH2 0x2BA7 JUMP JUMPDEST PUSH2 0xF44 PUSH1 0x0 PUSH2 0x2589 JUMP JUMPDEST JUMP JUMPDEST PUSH1 0x6 SLOAD PUSH1 0x40 MLOAD PUSH4 0xD06CA61F PUSH1 0xE0 SHL DUP2 MSTORE PUSH1 0x0 SWAP2 DUP3 SWAP2 PUSH1 0x1 PUSH1 0x1 PUSH1 0xA0 SHL SUB SWAP1 SWAP2 AND SWAP1 PUSH4 0xD06CA61F SWAP1 PUSH2 0xF86 SWAP1 PUSH8 0xDE0B6B3A7640000 SWAP1 PUSH1 0x14 SWAP1 PUSH1 0x4 ADD PUSH2 0x2BDC JUMP JUMPDEST PUSH1 0x0 PUSH1 0x40 MLOAD DUP1 DUP4 SUB DUP2 DUP7 GAS STATICCALL ISZERO DUP1 ISZERO PUSH2 0xFA3 JUMPI RETURNDATASIZE PUSH1 0x0 DUP1 RETURNDATACOPY RETURNDATASIZE PUSH1 0x0 REVERT JUMPDEST POP POP POP POP PUSH1 0x40 MLOAD RETURNDATASIZE PUSH1 0x0 DUP3 RETURNDATACOPY PUSH1 0x1F RETURNDATASIZE SWAP1 DUP2 ADD PUSH1 0x1F NOT AND DUP3 ADD PUSH1 0x40 MSTORE PUSH2 0xFCB SWAP2 SWAP1 DUP2 ADD SWAP1 PUSH2 0x2C4E JUMP JUMPDEST SWAP1 POP DUP1 PUSH1 0x1 DUP2 MLOAD DUP2 LT PUSH2 0xFE0 JUMPI PUSH2 0xFE0 PUSH2 0x2D0C JUMP JUMPDEST PUSH1 0x20 MUL PUSH1 0x20 ADD ADD MLOAD SWAP2 POP POP SWAP1 JUMP JUMPDEST PUSH1 0x0 JUMPDEST PUSH1 0x13 SLOAD DUP2 LT ISZERO PUSH2 0xEA0 JUMPI PUSH1 0x13 DUP2 DUP2 SLOAD DUP2 LT PUSH2 0x100E JUMPI PUSH2 0x100E PUSH2 0x2D0C JUMP JUMPDEST PUSH1 0x0 SWAP2 DUP3 MSTORE PUSH1 0x20 DUP3 KECCAK256 ADD SLOAD PUSH1 0x40 DUP1 MLOAD PUSH1 0x1 PUSH3 0x93517 PUSH1 0xE0 SHL SUB NOT DUP2 MSTORE SWAP1 MLOAD PUSH1 0x1 PUSH1 0x1 PUSH1 0xA0 SHL SUB SWAP1 SWAP3 AND SWAP3 PUSH4 0xFFF6CAE9 SWAP3 PUSH1 0x4 DUP1 DUP5 ADD SWAP4 DUP3 SWAP1 SUB ADD DUP2 DUP4 DUP8 DUP1 EXTCODESIZE ISZERO DUP1 ISZERO PUSH2 0x1059 JUMPI PUSH1 0x0 DUP1 REVERT JUMPDEST POP GAS CALL ISZERO DUP1 ISZERO PUSH2 0x106D JUMPI RETURNDATASIZE PUSH1 0x0 DUP1 RETURNDATACOPY RETURNDATASIZE PUSH1 0x0 REVERT JUMPDEST POP POP POP POP DUP1 DUP1 PUSH2 0x107C SWAP1 PUSH2 0x2D22 JUMP JUMPDEST SWAP2 POP POP PUSH2 0xFF1 JUMP JUMPDEST PUSH1 0x0 PUSH2 0x1090 DUP4 CALLER PUSH2 0x6A4 JUMP JUMPDEST SWAP1 POP DUP2 DUP2 LT ISZERO PUSH2 0x10EE JUMPI PUSH1 0x40 MLOAD PUSH3 0x461BCD PUSH1 0xE5 SHL DUP2 MSTORE PUSH1 0x20 PUSH1 0x4 DUP3 ADD MSTORE PUSH1 0x24 DUP1 DUP3 ADD MSTORE PUSH32 0x45524332303A206275726E20616D6F756E74206578636565647320616C6C6F77 PUSH1 0x44 DUP3 ADD MSTORE PUSH4 0x616E6365 PUSH1 0xE0 SHL PUSH1 0x64 DUP3 ADD MSTORE PUSH1 0x84 ADD PUSH2 0x97A JUMP JUMPDEST PUSH2 0x10FB DUP4 CALLER DUP5 DUP5 SUB PUSH2 0x1D69 JUMP JUMPDEST PUSH2 0xF0B DUP4 DUP4 PUSH2 0x2319 JUMP JUMPDEST PUSH1 0x9 SLOAD PUSH1 0x1 PUSH1 0x1 PUSH1 0xA0 SHL SUB AND PUSH1 0x0 SWAP1 DUP2 MSTORE PUSH1 0xF PUSH1 0x20 MSTORE PUSH1 0x40 DUP2 KECCAK256 SLOAD DUP2 SWAP1 PUSH1 0x7 SLOAD PUSH1 0x9 SLOAD PUSH1 0x40 MLOAD PUSH4 0x70A08231 PUSH1 0xE0 SHL DUP2 MSTORE PUSH1 0x1 PUSH1 0x1 PUSH1 0xA0 SHL SUB SWAP2 DUP3 AND PUSH1 0x4 DUP3 ADD MSTORE SWAP3 SWAP4 POP PUSH1 0x0 SWAP3 SWAP2 AND SWAP1 PUSH4 0x70A08231 SWAP1 PUSH1 0x24 ADD PUSH1 0x20 PUSH1 0x40 MLOAD DUP1 DUP4 SUB DUP2 DUP7 GAS STATICCALL ISZERO DUP1 ISZERO PUSH2 0x1174 JUMPI RETURNDATASIZE PUSH1 0x0 DUP1 RETURNDATACOPY RETURNDATASIZE PUSH1 0x0 REVERT JUMPDEST POP POP POP POP PUSH1 0x40 MLOAD RETURNDATASIZE PUSH1 0x1F NOT PUSH1 0x1F DUP3 ADD AND DUP3 ADD DUP1 PUSH1 0x40 MSTORE POP DUP2 ADD SWAP1 PUSH2 0x1198 SWAP2 SWAP1 PUSH2 0x2B42 JUMP JUMPDEST SWAP1 POP DUP2 ISZERO PUSH2 0x11B4 JUMPI PUSH1 0x0 PUSH2 0x11AC DUP4 DUP4 PUSH2 0x2B20 JUMP JUMPDEST SWAP5 SWAP4 POP POP POP POP JUMP JUMPDEST PUSH1 0x1 SWAP3 POP POP POP SWAP1 JUMP JUMPDEST PUSH1 0x5 SLOAD PUSH1 0x1 PUSH1 0x1 PUSH1 0xA0 SHL SUB AND CALLER EQ PUSH2 0x11E7 JUMPI PUSH1 0x40 MLOAD PUSH3 0x461BCD PUSH1 0xE5 SHL DUP2 MSTORE PUSH1 0x4 ADD PUSH2 0x97A SWAP1 PUSH2 0x2BA7 JUMP JUMPDEST PUSH1 0x1 PUSH1 0x1 PUSH1 0xA0 SHL SUB DUP3 AND PUSH1 0x0 SWAP1 DUP2 MSTORE PUSH1 0x10 PUSH1 0x20 MSTORE PUSH1 0x40 SWAP1 KECCAK256 SLOAD DUP2 ISZERO ISZERO PUSH1 0xFF SWAP1 SWAP2 AND ISZERO ISZERO SUB PUSH2 0x1245 JUMPI PUSH1 0x40 MLOAD PUSH3 0x461BCD PUSH1 0xE5 SHL DUP2 MSTORE PUSH1 0x20 PUSH1 0x4 DUP3 ADD MSTORE PUSH1 0xB PUSH1 0x24 DUP3 ADD MSTORE PUSH11 0x139BDD0818DA185B99D959 PUSH1 0xAA SHL PUSH1 0x44 DUP3 ADD MSTORE PUSH1 0x64 ADD PUSH2 0x97A JUMP JUMPDEST PUSH1 0x1 PUSH1 0x1 PUSH1 0xA0 SHL SUB DUP3 AND PUSH1 0x0 DUP2 DUP2 MSTORE PUSH1 0x10 PUSH1 0x20 SWAP1 DUP2 MSTORE PUSH1 0x40 SWAP2 DUP3 SWAP1 KECCAK256 DUP1 SLOAD PUSH1 0xFF NOT AND DUP6 ISZERO ISZERO SWAP1 DUP2 OR SWAP1 SWAP2 SSTORE DUP3 MLOAD SWAP4 DUP5 MSTORE SWAP1 DUP4 ADD MSTORE PUSH32 0x6BE51401060BE42994125D8C96B787433E7A641A3555E3C3C4765E8A950FA37A SWAP2 ADD JUMPDEST PUSH1 0x40 MLOAD DUP1 SWAP2 SUB SWAP1 LOG1 POP POP JUMP JUMPDEST PUSH1 0x60 PUSH1 0x4 DUP1 SLOAD PUSH2 0x704 SWAP1 PUSH2 0x2A89 JUMP JUMPDEST PUSH1 0x5 SLOAD PUSH1 0x1 PUSH1 0x1 PUSH1 0xA0 SHL SUB AND CALLER EQ PUSH2 0x12E2 JUMPI PUSH1 0x40 MLOAD PUSH3 0x461BCD PUSH1 0xE5 SHL DUP2 MSTORE PUSH1 0x4 ADD PUSH2 0x97A SWAP1 PUSH2 0x2BA7 JUMP JUMPDEST PUSH1 0x1 PUSH1 0x1 PUSH1 0xA0 SHL SUB DUP3 AND PUSH1 0x0 SWAP1 DUP2 MSTORE PUSH1 0x11 PUSH1 0x20 MSTORE PUSH1 0x40 SWAP1 KECCAK256 SLOAD DUP2 ISZERO ISZERO PUSH1 0xFF SWAP1 SWAP2 AND ISZERO ISZERO SUB PUSH2 0x1346 JUMPI PUSH1 0x40 MLOAD PUSH3 0x461BCD PUSH1 0xE5 SHL DUP2 MSTORE PUSH1 0x20 PUSH1 0x4 DUP3 ADD MSTORE PUSH1 0x11 PUSH1 0x24 DUP3 ADD MSTORE PUSH17 0x15985B1D5948185B1C9958591E481CD95D PUSH1 0x7A SHL PUSH1 0x44 DUP3 ADD MSTORE PUSH1 0x64 ADD PUSH2 0x97A JUMP JUMPDEST PUSH1 0x1 PUSH1 0x1 PUSH1 0xA0 SHL SUB SWAP2 SWAP1 SWAP2 AND PUSH1 0x0 DUP2 DUP2 MSTORE PUSH1 0x11 PUSH1 0x20 MSTORE PUSH1 0x40 DUP2 KECCAK256 DUP1 SLOAD PUSH1 0xFF NOT AND SWAP4 ISZERO ISZERO SWAP4 SWAP1 SWAP4 OR SWAP1 SWAP3 SSTORE PUSH1 0x13 DUP1 SLOAD PUSH1 0x1 DUP2 ADD DUP3 SSTORE SWAP3 MSTORE PUSH32 0x66DE8FFDA797E3DE9C05E8FC57B3BF0EC28A930D40B0D285D93C06501CF6A090 SWAP1 SWAP2 ADD DUP1 SLOAD PUSH1 0x1 PUSH1 0x1 PUSH1 0xA0 SHL SUB NOT AND SWAP1 SWAP2 OR SWAP1 SSTORE JUMP JUMPDEST PUSH1 0x7 SLOAD PUSH1 0xD SLOAD PUSH1 0x40 MLOAD PUSH4 0x70A08231 PUSH1 0xE0 SHL DUP2 MSTORE PUSH1 0x1 PUSH1 0x1 PUSH1 0xA0 SHL SUB SWAP2 DUP3 AND PUSH1 0x4 DUP3 ADD MSTORE PUSH1 0x0 SWAP3 DUP4 SWAP3 AND SWAP1 PUSH4 0x70A08231 SWAP1 PUSH1 0x24 ADD PUSH1 0x20 PUSH1 0x40 MLOAD DUP1 DUP4 SUB DUP2 DUP7 GAS STATICCALL ISZERO DUP1 ISZERO PUSH2 0x1403 JUMPI RETURNDATASIZE PUSH1 0x0 DUP1 RETURNDATACOPY RETURNDATASIZE PUSH1 0x0 REVERT JUMPDEST POP POP POP POP PUSH1 0x40 MLOAD RETURNDATASIZE PUSH1 0x1F NOT PUSH1 0x1F DUP3 ADD AND DUP3 ADD DUP1 PUSH1 0x40 MSTORE POP DUP2 ADD SWAP1 PUSH2 0x1427 SWAP2 SWAP1 PUSH2 0x2B42 JUMP JUMPDEST SWAP1 POP PUSH1 0x1C SLOAD DUP2 GT DUP1 ISZERO PUSH2 0x1453 JUMPI POP PUSH1 0x1 PUSH1 0x1 PUSH1 0xA0 SHL SUB DUP4 AND PUSH1 0x0 SWAP1 DUP2 MSTORE PUSH1 0x10 PUSH1 0x20 MSTORE PUSH1 0x40 SWAP1 KECCAK256 SLOAD PUSH1 0xFF AND ISZERO JUMPDEST DUP1 ISZERO PUSH2 0x1469 JUMPI POP PUSH1 0x27 SLOAD PUSH4 0x1000000 SWAP1 DIV PUSH1 0xFF AND ISZERO JUMPDEST DUP1 ISZERO PUSH2 0x148E JUMPI POP PUSH1 0x1 PUSH1 0x1 PUSH1 0xA0 SHL SUB DUP4 AND PUSH1 0x0 SWAP1 DUP2 MSTORE PUSH1 0x11 PUSH1 0x20 MSTORE PUSH1 0x40 SWAP1 KECCAK256 SLOAD PUSH1 0xFF AND ISZERO JUMPDEST DUP1 ISZERO PUSH2 0x14A8 JUMPI POP PUSH1 0x27 SLOAD PUSH1 0x1 PUSH1 0xC0 SHL SWAP1 DIV PUSH1 0xFF AND ISZERO ISZERO PUSH1 0x1 EQ JUMPDEST ISZERO PUSH2 0x14B6 JUMPI POP PUSH1 0x1 SWAP3 SWAP2 POP POP JUMP JUMPDEST POP PUSH1 0x0 SWAP3 SWAP2 POP POP JUMP JUMPDEST POP SWAP2 SWAP1 POP JUMP JUMPDEST PUSH1 0x27 SLOAD PUSH5 0x100000000 SWAP1 DIV PUSH1 0x1 PUSH1 0x1 PUSH1 0xA0 SHL SUB AND CALLER EQ PUSH2 0x14E4 JUMPI PUSH1 0x0 DUP1 REVERT JUMPDEST DUP1 DUP3 EQ PUSH2 0x1526 JUMPI PUSH1 0x40 MLOAD PUSH3 0x461BCD PUSH1 0xE5 SHL DUP2 MSTORE PUSH1 0x20 PUSH1 0x4 DUP3 ADD MSTORE PUSH1 0x10 PUSH1 0x24 DUP3 ADD MSTORE PUSH16 0x185B5BDD5B9D081B9BDD08195C5D585B PUSH1 0x82 SHL PUSH1 0x44 DUP3 ADD MSTORE PUSH1 0x64 ADD PUSH2 0x97A JUMP JUMPDEST PUSH2 0x1530 ADDRESS DUP3 PUSH2 0x25DB JUMP JUMPDEST PUSH2 0x153A DUP3 DUP3 PUSH2 0x79E JUMP JUMPDEST POP POP JUMP JUMPDEST CALLER PUSH1 0x0 SWAP1 DUP2 MSTORE PUSH1 0x12 PUSH1 0x20 SWAP1 DUP2 MSTORE PUSH1 0x40 DUP1 DUP4 KECCAK256 PUSH1 0x1 PUSH1 0x1 PUSH1 0xA0 SHL SUB DUP7 AND DUP5 MSTORE SWAP1 SWAP2 MSTORE DUP2 KECCAK256 SLOAD DUP1 DUP4 LT PUSH2 0x1592 JUMPI CALLER PUSH1 0x0 SWAP1 DUP2 MSTORE PUSH1 0x12 PUSH1 0x20 SWAP1 DUP2 MSTORE PUSH1 0x40 DUP1 DUP4 KECCAK256 PUSH1 0x1 PUSH1 0x1 PUSH1 0xA0 SHL SUB DUP9 AND DUP5 MSTORE SWAP1 SWAP2 MSTORE DUP2 KECCAK256 SSTORE PUSH2 0x15C1 JUMP JUMPDEST PUSH2 0x159C DUP2 DUP5 PUSH2 0x268A JUMP JUMPDEST CALLER PUSH1 0x0 SWAP1 DUP2 MSTORE PUSH1 0x12 PUSH1 0x20 SWAP1 DUP2 MSTORE PUSH1 0x40 DUP1 DUP4 KECCAK256 PUSH1 0x1 PUSH1 0x1 PUSH1 0xA0 SHL SUB DUP10 AND DUP5 MSTORE SWAP1 SWAP2 MSTORE SWAP1 KECCAK256 SSTORE JUMPDEST CALLER PUSH1 0x0 DUP2 DUP2 MSTORE PUSH1 0x12 PUSH1 0x20 SWAP1 DUP2 MSTORE PUSH1 0x40 DUP1 DUP4 KECCAK256 PUSH1 0x1 PUSH1 0x1 PUSH1 0xA0 SHL SUB DUP10 AND DUP1 DUP6 MSTORE SWAP1 DUP4 MSTORE SWAP3 DUP2 SWAP1 KECCAK256 SLOAD SWAP1 MLOAD SWAP1 DUP2 MSTORE SWAP2 SWAP3 SWAP2 PUSH32 0x8C5BE1E5EBEC7D5BD14F71427D1E84F3DD0314C0F7B2291E5B200AC8C7C3B925 SWAP2 ADD PUSH1 0x40 MLOAD DUP1 SWAP2 SUB SWAP1 LOG3 POP PUSH1 0x1 SWAP4 SWAP3 POP POP POP JUMP JUMPDEST PUSH1 0x0 CALLER PUSH2 0x1633 DUP2 DUP6 DUP6 PUSH2 0x1F19 JUMP JUMPDEST POP PUSH1 0x1 SWAP4 SWAP3 POP POP POP JUMP JUMPDEST PUSH1 0x7 SLOAD PUSH1 0x9 SLOAD PUSH1 0x40 MLOAD PUSH4 0x70A08231 PUSH1 0xE0 SHL DUP2 MSTORE PUSH1 0x1 PUSH1 0x1 PUSH1 0xA0 SHL SUB SWAP2 DUP3 AND PUSH1 0x4 DUP3 ADD MSTORE PUSH1 0x0 SWAP3 DUP4 SWAP3 AND SWAP1 PUSH4 0x70A08231 SWAP1 PUSH1 0x24 ADD PUSH1 0x20 PUSH1 0x40 MLOAD DUP1 DUP4 SUB DUP2 DUP7 GAS STATICCALL ISZERO DUP1 ISZERO PUSH2 0x168D JUMPI RETURNDATASIZE PUSH1 0x0 DUP1 RETURNDATACOPY RETURNDATASIZE PUSH1 0x0 REVERT JUMPDEST POP POP POP POP PUSH1 0x40 MLOAD RETURNDATASIZE PUSH1 0x1F NOT PUSH1 0x1F DUP3 ADD AND DUP3 ADD DUP1 PUSH1 0x40 MSTORE POP DUP2 ADD SWAP1 PUSH2 0x16B1 SWAP2 SWAP1 PUSH2 0x2B42 JUMP JUMPDEST SWAP1 POP PUSH2 0x16BE DUP4 PUSH1 0x2 PUSH2 0x2696 JUMP JUMPDEST DUP2 GT DUP1 ISZERO PUSH2 0x16CC JUMPI POP PUSH1 0x0 DUP4 GT JUMPDEST DUP1 ISZERO PUSH2 0x14A8 JUMPI POP PUSH1 0x27 SLOAD PUSH1 0x0 NOT PUSH3 0x10000 SWAP1 SWAP2 DIV PUSH1 0xFF AND ISZERO ISZERO ADD PUSH2 0x14B6 JUMPI POP PUSH1 0x1 SWAP3 SWAP2 POP POP JUMP JUMPDEST DUP2 ISZERO ISZERO PUSH1 0x1 SUB PUSH2 0x17CD JUMPI PUSH1 0x0 PUSH1 0x64 DUP3 PUSH1 0x20 SLOAD PUSH2 0x170F SWAP2 SWAP1 PUSH2 0x2B01 JUMP JUMPDEST PUSH2 0x1719 SWAP2 SWAP1 PUSH2 0x2B20 JUMP JUMPDEST SWAP1 POP PUSH1 0x0 PUSH1 0x64 DUP4 PUSH1 0x1F SLOAD PUSH2 0x172D SWAP2 SWAP1 PUSH2 0x2B01 JUMP JUMPDEST PUSH2 0x1737 SWAP2 SWAP1 PUSH2 0x2B20 JUMP JUMPDEST PUSH1 0x7 SLOAD PUSH1 0xB SLOAD PUSH1 0x40 MLOAD PUSH4 0xA9059CBB PUSH1 0xE0 SHL DUP2 MSTORE PUSH1 0x1 PUSH1 0x1 PUSH1 0xA0 SHL SUB SWAP2 DUP3 AND PUSH1 0x4 DUP3 ADD MSTORE PUSH1 0x24 DUP2 ADD DUP7 SWAP1 MSTORE SWAP3 SWAP4 POP AND SWAP1 PUSH4 0xA9059CBB SWAP1 PUSH1 0x44 ADD PUSH1 0x20 PUSH1 0x40 MLOAD DUP1 DUP4 SUB DUP2 PUSH1 0x0 DUP8 GAS CALL ISZERO DUP1 ISZERO PUSH2 0x178E JUMPI RETURNDATASIZE PUSH1 0x0 DUP1 RETURNDATACOPY RETURNDATASIZE PUSH1 0x0 REVERT JUMPDEST POP POP POP POP PUSH1 0x40 MLOAD RETURNDATASIZE PUSH1 0x1F NOT PUSH1 0x1F DUP3 ADD AND DUP3 ADD DUP1 PUSH1 0x40 MSTORE POP DUP2 ADD SWAP1 PUSH2 0x17B2 SWAP2 SWAP1 PUSH2 0x2B8A JUMP JUMPDEST POP PUSH2 0x17BD ADDRESS DUP3 PUSH2 0x25DB JUMP JUMPDEST PUSH2 0x17C7 DUP2 DUP3 PUSH2 0x79E JUMP JUMPDEST POP POP POP POP JUMP JUMPDEST DUP2 ISZERO ISZERO PUSH1 0x0 SUB PUSH2 0x153A JUMPI PUSH1 0x0 PUSH1 0x64 DUP3 PUSH1 0x23 SLOAD PUSH2 0x17E9 SWAP2 SWAP1 PUSH2 0x2B01 JUMP JUMPDEST PUSH2 0x17F3 SWAP2 SWAP1 PUSH2 0x2B20 JUMP JUMPDEST SWAP1 POP PUSH1 0x0 PUSH1 0x64 DUP4 PUSH1 0x22 SLOAD PUSH2 0x1807 SWAP2 SWAP1 PUSH2 0x2B01 JUMP JUMPDEST PUSH2 0x1811 SWAP2 SWAP1 PUSH2 0x2B20 JUMP JUMPDEST SWAP1 POP PUSH1 0x0 PUSH1 0x64 DUP5 PUSH1 0x21 SLOAD PUSH2 0x1825 SWAP2 SWAP1 PUSH2 0x2B01 JUMP JUMPDEST PUSH2 0x182F SWAP2 SWAP1 PUSH2 0x2B20 JUMP JUMPDEST SWAP1 POP PUSH1 0x0 PUSH1 0x64 DUP6 PUSH1 0x24 SLOAD PUSH2 0x1843 SWAP2 SWAP1 PUSH2 0x2B01 JUMP JUMPDEST PUSH2 0x184D SWAP2 SWAP1 PUSH2 0x2B20 JUMP JUMPDEST PUSH1 0x7 SLOAD PUSH1 0xB SLOAD PUSH1 0x40 MLOAD PUSH4 0xA9059CBB PUSH1 0xE0 SHL DUP2 MSTORE PUSH1 0x1 PUSH1 0x1 PUSH1 0xA0 SHL SUB SWAP2 DUP3 AND PUSH1 0x4 DUP3 ADD MSTORE PUSH1 0x24 DUP2 ADD DUP9 SWAP1 MSTORE SWAP3 SWAP4 POP AND SWAP1 PUSH4 0xA9059CBB SWAP1 PUSH1 0x44 ADD PUSH1 0x20 PUSH1 0x40 MLOAD DUP1 DUP4 SUB DUP2 PUSH1 0x0 DUP8 GAS CALL ISZERO DUP1 ISZERO PUSH2 0x18A4 JUMPI RETURNDATASIZE PUSH1 0x0 DUP1 RETURNDATACOPY RETURNDATASIZE PUSH1 0x0 REVERT JUMPDEST POP POP POP POP PUSH1 0x40 MLOAD RETURNDATASIZE PUSH1 0x1F NOT PUSH1 0x1F DUP3 ADD AND DUP3 ADD DUP1 PUSH1 0x40 MSTORE POP DUP2 ADD SWAP1 PUSH2 0x18C8 SWAP2 SWAP1 PUSH2 0x2B8A JUMP JUMPDEST POP PUSH1 0x7 SLOAD PUSH1 0xA SLOAD PUSH1 0x40 MLOAD PUSH4 0xA9059CBB PUSH1 0xE0 SHL DUP2 MSTORE PUSH1 0x1 PUSH1 0x1 PUSH1 0xA0 SHL SUB SWAP2 DUP3 AND PUSH1 0x4 DUP3 ADD MSTORE PUSH1 0x24 DUP2 ADD DUP6 SWAP1 MSTORE SWAP2 AND SWAP1 PUSH4 0xA9059CBB SWAP1 PUSH1 0x44 ADD PUSH1 0x20 PUSH1 0x40 MLOAD DUP1 DUP4 SUB DUP2 PUSH1 0x0 DUP8 GAS CALL ISZERO DUP1 ISZERO PUSH2 0x191E JUMPI RETURNDATASIZE PUSH1 0x0 DUP1 RETURNDATACOPY RETURNDATASIZE PUSH1 0x0 REVERT JUMPDEST POP POP POP POP PUSH1 0x40 MLOAD RETURNDATASIZE PUSH1 0x1F NOT PUSH1 0x1F DUP3 ADD AND DUP3 ADD DUP1 PUSH1 0x40 MSTORE POP DUP2 ADD SWAP1 PUSH2 0x1942 SWAP2 SWAP1 PUSH2 0x2B8A JUMP JUMPDEST POP PUSH1 0x7 SLOAD PUSH1 0xC SLOAD PUSH1 0x40 MLOAD PUSH4 0xA9059CBB PUSH1 0xE0 SHL DUP2 MSTORE PUSH1 0x1 PUSH1 0x1 PUSH1 0xA0 SHL SUB SWAP2 DUP3 AND PUSH1 0x4 DUP3 ADD MSTORE PUSH1 0x24 DUP2 ADD DUP5 SWAP1 MSTORE SWAP2 AND SWAP1 PUSH4 0xA9059CBB SWAP1 PUSH1 0x44 ADD PUSH1 0x20 PUSH1 0x40 MLOAD DUP1 DUP4 SUB DUP2 PUSH1 0x0 DUP8 GAS CALL ISZERO DUP1 ISZERO PUSH2 0x1998 JUMPI RETURNDATASIZE PUSH1 0x0 DUP1 RETURNDATACOPY RETURNDATASIZE PUSH1 0x0 REVERT JUMPDEST POP POP POP POP PUSH1 0x40 MLOAD RETURNDATASIZE PUSH1 0x1F NOT PUSH1 0x1F DUP3 ADD AND DUP3 ADD DUP1 PUSH1 0x40 MSTORE POP DUP2 ADD SWAP1 PUSH2 0x19BC SWAP2 SWAP1 PUSH2 0x2B8A JUMP JUMPDEST POP PUSH2 0x19C7 ADDRESS DUP5 PUSH2 0x25DB JUMP JUMPDEST PUSH2 0x19D1 DUP4 DUP5 PUSH2 0x79E JUMP JUMPDEST POP POP POP POP POP POP JUMP JUMPDEST PUSH1 0x5 SLOAD PUSH1 0x1 PUSH1 0x1 PUSH1 0xA0 SHL SUB AND CALLER EQ PUSH2 0x1A03 JUMPI PUSH1 0x40 MLOAD PUSH3 0x461BCD PUSH1 0xE5 SHL DUP2 MSTORE PUSH1 0x4 ADD PUSH2 0x97A SWAP1 PUSH2 0x2BA7 JUMP JUMPDEST PUSH1 0x27 DUP1 SLOAD DUP3 ISZERO ISZERO PUSH1 0x1 PUSH1 0xC0 SHL MUL PUSH1 0xFF PUSH1 0xC0 SHL NOT SWAP1 SWAP2 AND OR SWAP1 SSTORE PUSH1 0x40 MLOAD PUSH32 0x87785C205BDECD32DDBCBEB016094641E4B43D5AAEE98563596B34883E659003 SWAP1 PUSH2 0xCEA SWAP1 DUP4 ISZERO ISZERO DUP2 MSTORE PUSH1 0x20 ADD SWAP1 JUMP JUMPDEST PUSH1 0x5 SLOAD PUSH1 0x1 PUSH1 0x1 PUSH1 0xA0 SHL SUB AND CALLER EQ PUSH2 0x1A7A JUMPI PUSH1 0x40 MLOAD PUSH3 0x461BCD PUSH1 0xE5 SHL DUP2 MSTORE PUSH1 0x4 ADD PUSH2 0x97A SWAP1 PUSH2 0x2BA7 JUMP JUMPDEST PUSH8 0xDE0B6B3A7640000 DUP2 LT ISZERO PUSH2 0x1AD2 JUMPI PUSH1 0x40 MLOAD PUSH3 0x461BCD PUSH1 0xE5 SHL DUP2 MSTORE PUSH1 0x20 PUSH1 0x4 DUP3 ADD MSTORE PUSH1 0x17 PUSH1 0x24 DUP3 ADD MSTORE PUSH32 0x74726573686F6C64206D75737420626520686967686572000000000000000000 PUSH1 0x44 DUP3 ADD MSTORE PUSH1 0x64 ADD PUSH2 0x97A JUMP JUMPDEST PUSH1 0x1C SSTORE JUMP JUMPDEST PUSH1 0x5 SLOAD PUSH1 0x1 PUSH1 0x1 PUSH1 0xA0 SHL SUB AND CALLER EQ PUSH2 0x1B01 JUMPI PUSH1 0x40 MLOAD PUSH3 0x461BCD PUSH1 0xE5 SHL DUP2 MSTORE PUSH1 0x4 ADD PUSH2 0x97A SWAP1 PUSH2 0x2BA7 JUMP JUMPDEST PUSH1 0x19 SLOAD PUSH2 0x1B0E DUP3 DUP3 PUSH2 0x1625 JUMP JUMPDEST POP PUSH1 0x0 PUSH1 0x19 SSTORE PUSH1 0x40 MLOAD PUSH1 0x1 PUSH1 0x1 PUSH1 0xA0 SHL SUB DUP4 AND DUP2 MSTORE PUSH32 0x2F0F983BC447DA14DA80EF6B41A88AB1EA636129DF3A6AF92B870934D6802A85 SWAP1 PUSH1 0x20 ADD PUSH2 0x129D JUMP JUMPDEST PUSH1 0x5 SLOAD PUSH1 0x1 PUSH1 0x1 PUSH1 0xA0 SHL SUB AND CALLER EQ PUSH2 0x1B77 JUMPI PUSH1 0x40 MLOAD PUSH3 0x461BCD PUSH1 0xE5 SHL DUP2 MSTORE PUSH1 0x4 ADD PUSH2 0x97A SWAP1 PUSH2 0x2BA7 JUMP JUMPDEST PUSH1 0x27 DUP1 SLOAD PUSH1 0x1 PUSH1 0x1 PUSH1 0xA0 SHL SUB SWAP1 SWAP3 AND PUSH5 0x100000000 MUL PUSH5 0x100000000 PUSH1 0x1 PUSH1 0xC0 SHL SUB NOT SWAP1 SWAP3 AND SWAP2 SWAP1 SWAP2 OR SWAP1 SSTORE JUMP JUMPDEST PUSH1 0x0 DUP2 GT PUSH2 0x1BB2 JUMPI PUSH1 0x0 DUP1 REVERT JUMPDEST PUSH1 0x0 PUSH2 0x1BBC PUSH2 0xF46 JUMP JUMPDEST SWAP1 POP PUSH1 0x0 PUSH1 0x64 PUSH1 0x1D SLOAD DUP5 PUSH2 0x1BD0 SWAP2 SWAP1 PUSH2 0x2B01 JUMP JUMPDEST PUSH2 0x1BDA SWAP2 SWAP1 PUSH2 0x2B20 JUMP JUMPDEST SWAP1 POP DUP1 PUSH1 0x1A PUSH1 0x0 DUP3 DUP3 SLOAD PUSH2 0x1BEE SWAP2 SWAP1 PUSH2 0x2B5B JUMP JUMPDEST SWAP1 SWAP2 SSTORE POP PUSH1 0x0 SWAP1 POP PUSH2 0x1C00 DUP3 DUP6 PUSH2 0x2B73 JUMP JUMPDEST SWAP1 POP PUSH1 0x0 DUP4 PUSH2 0x1C17 DUP4 PUSH8 0xDE0B6B3A7640000 PUSH2 0x2B01 JUMP JUMPDEST PUSH2 0x1C21 SWAP2 SWAP1 PUSH2 0x2B20 JUMP JUMPDEST PUSH1 0x7 SLOAD PUSH1 0x40 MLOAD PUSH4 0x23B872DD PUSH1 0xE0 SHL DUP2 MSTORE CALLER PUSH1 0x4 DUP3 ADD MSTORE ADDRESS PUSH1 0x24 DUP3 ADD MSTORE PUSH1 0x44 DUP2 ADD DUP9 SWAP1 MSTORE SWAP2 SWAP3 POP PUSH1 0x1 PUSH1 0x1 PUSH1 0xA0 SHL SUB AND SWAP1 PUSH4 0x23B872DD SWAP1 PUSH1 0x64 ADD PUSH1 0x20 PUSH1 0x40 MLOAD DUP1 DUP4 SUB DUP2 PUSH1 0x0 DUP8 GAS CALL ISZERO DUP1 ISZERO PUSH2 0x1C79 JUMPI RETURNDATASIZE PUSH1 0x0 DUP1 RETURNDATACOPY RETURNDATASIZE PUSH1 0x0 REVERT JUMPDEST POP POP POP POP PUSH1 0x40 MLOAD RETURNDATASIZE PUSH1 0x1F NOT PUSH1 0x1F DUP3 ADD AND DUP3 ADD DUP1 PUSH1 0x40 MSTORE POP DUP2 ADD SWAP1 PUSH2 0x1C9D SWAP2 SWAP1 PUSH2 0x2B8A JUMP JUMPDEST POP PUSH2 0x1CA9 PUSH1 0x1 DUP7 PUSH2 0x16F3 JUMP JUMPDEST PUSH2 0x1CB3 CALLER DUP3 PUSH2 0x25DB JUMP JUMPDEST DUP2 PUSH1 0x26 PUSH1 0x0 DUP3 DUP3 SLOAD PUSH2 0x1CC5 SWAP2 SWAP1 PUSH2 0x2B5B JUMP JUMPDEST SWAP1 SWAP2 SSTORE POP POP POP POP POP POP POP JUMP JUMPDEST PUSH1 0x5 SLOAD PUSH1 0x1 PUSH1 0x1 PUSH1 0xA0 SHL SUB AND CALLER EQ PUSH2 0x1CFB JUMPI PUSH1 0x40 MLOAD PUSH3 0x461BCD PUSH1 0xE5 SHL DUP2 MSTORE PUSH1 0x4 ADD PUSH2 0x97A SWAP1 PUSH2 0x2BA7 JUMP JUMPDEST PUSH1 0x1 PUSH1 0x1 PUSH1 0xA0 SHL SUB DUP2 AND PUSH2 0x1D60 JUMPI PUSH1 0x40 MLOAD PUSH3 0x461BCD PUSH1 0xE5 SHL DUP2 MSTORE PUSH1 0x20 PUSH1 0x4 DUP3 ADD MSTORE PUSH1 0x26 PUSH1 0x24 DUP3 ADD MSTORE PUSH32 0x4F776E61626C653A206E6577206F776E657220697320746865207A65726F2061 PUSH1 0x44 DUP3 ADD MSTORE PUSH6 0x646472657373 PUSH1 0xD0 SHL PUSH1 0x64 DUP3 ADD MSTORE PUSH1 0x84 ADD PUSH2 0x97A JUMP JUMPDEST PUSH2 0xEA0 DUP2 PUSH2 0x2589 JUMP JUMPDEST PUSH1 0x1 PUSH1 0x1 PUSH1 0xA0 SHL SUB DUP4 AND PUSH2 0x1DCB JUMPI PUSH1 0x40 MLOAD PUSH3 0x461BCD PUSH1 0xE5 SHL DUP2 MSTORE PUSH1 0x20 PUSH1 0x4 DUP3 ADD MSTORE PUSH1 0x24 DUP1 DUP3 ADD MSTORE PUSH32 0x45524332303A20617070726F76652066726F6D20746865207A65726F20616464 PUSH1 0x44 DUP3 ADD MSTORE PUSH4 0x72657373 PUSH1 0xE0 SHL PUSH1 0x64 DUP3 ADD MSTORE PUSH1 0x84 ADD PUSH2 0x97A JUMP JUMPDEST PUSH1 0x1 PUSH1 0x1 PUSH1 0xA0 SHL SUB DUP3 AND PUSH2 0x1E2C JUMPI PUSH1 0x40 MLOAD PUSH3 0x461BCD PUSH1 0xE5 SHL DUP2 MSTORE PUSH1 0x20 PUSH1 0x4 DUP3 ADD MSTORE PUSH1 0x22 PUSH1 0x24 DUP3 ADD MSTORE PUSH32 0x45524332303A20617070726F766520746F20746865207A65726F206164647265 PUSH1 0x44 DUP3 ADD MSTORE PUSH2 0x7373 PUSH1 0xF0 SHL PUSH1 0x64 DUP3 ADD MSTORE PUSH1 0x84 ADD PUSH2 0x97A JUMP JUMPDEST PUSH1 0x1 PUSH1 0x1 PUSH1 0xA0 SHL SUB DUP4 DUP2 AND PUSH1 0x0 DUP2 DUP2 MSTORE PUSH1 0x12 PUSH1 0x20 SWAP1 DUP2 MSTORE PUSH1 0x40 DUP1 DUP4 KECCAK256 SWAP5 DUP8 AND DUP1 DUP5 MSTORE SWAP5 DUP3 MSTORE SWAP2 DUP3 SWAP1 KECCAK256 DUP6 SWAP1 SSTORE SWAP1 MLOAD DUP5 DUP2 MSTORE PUSH32 0x8C5BE1E5EBEC7D5BD14F71427D1E84F3DD0314C0F7B2291E5B200AC8C7C3B925 SWAP2 ADD PUSH1 0x40 MLOAD DUP1 SWAP2 SUB SWAP1 LOG3 POP POP POP JUMP JUMPDEST PUSH1 0x1 PUSH1 0x1 PUSH1 0xA0 SHL SUB DUP1 DUP5 AND PUSH1 0x0 SWAP1 DUP2 MSTORE PUSH1 0x12 PUSH1 0x20 SWAP1 DUP2 MSTORE PUSH1 0x40 DUP1 DUP4 KECCAK256 SWAP4 DUP7 AND DUP4 MSTORE SWAP3 SWAP1 MSTORE KECCAK256 SLOAD PUSH1 0x0 NOT DUP2 EQ PUSH2 0x17C7 JUMPI DUP2 DUP2 LT ISZERO PUSH2 0x1F0C JUMPI PUSH1 0x40 MLOAD PUSH3 0x461BCD PUSH1 0xE5 SHL DUP2 MSTORE PUSH1 0x20 PUSH1 0x4 DUP3 ADD MSTORE PUSH1 0x1D PUSH1 0x24 DUP3 ADD MSTORE PUSH32 0x45524332303A20696E73756666696369656E7420616C6C6F77616E6365000000 PUSH1 0x44 DUP3 ADD MSTORE PUSH1 0x64 ADD PUSH2 0x97A JUMP JUMPDEST PUSH2 0x17C7 DUP5 DUP5 DUP5 DUP5 SUB PUSH2 0x1D69 JUMP JUMPDEST PUSH1 0x1 PUSH1 0x1 PUSH1 0xA0 SHL SUB DUP4 AND PUSH2 0x1F7D JUMPI PUSH1 0x40 MLOAD PUSH3 0x461BCD PUSH1 0xE5 SHL DUP2 MSTORE PUSH1 0x20 PUSH1 0x4 DUP3 ADD MSTORE PUSH1 0x25 PUSH1 0x24 DUP3 ADD MSTORE PUSH32 0x45524332303A207472616E736665722066726F6D20746865207A65726F206164 PUSH1 0x44 DUP3 ADD MSTORE PUSH5 0x6472657373 PUSH1 0xD8 SHL PUSH1 0x64 DUP3 ADD MSTORE PUSH1 0x84 ADD PUSH2 0x97A JUMP JUMPDEST PUSH1 0x1 PUSH1 0x1 PUSH1 0xA0 SHL SUB DUP3 AND PUSH2 0x1FDF JUMPI PUSH1 0x40 MLOAD PUSH3 0x461BCD PUSH1 0xE5 SHL DUP2 MSTORE PUSH1 0x20 PUSH1 0x4 DUP3 ADD MSTORE PUSH1 0x23 PUSH1 0x24 DUP3 ADD MSTORE PUSH32 0x45524332303A207472616E7366657220746F20746865207A65726F2061646472 PUSH1 0x44 DUP3 ADD MSTORE PUSH3 0x657373 PUSH1 0xE8 SHL PUSH1 0x64 DUP3 ADD MSTORE PUSH1 0x84 ADD PUSH2 0x97A JUMP JUMPDEST PUSH1 0x19 SLOAD PUSH2 0x1FEB DUP2 PUSH2 0x163D JUMP JUMPDEST DUP1 ISZERO PUSH2 0x2010 JUMPI POP PUSH1 0x1 PUSH1 0x1 PUSH1 0xA0 SHL SUB DUP5 AND PUSH1 0x0 SWAP1 DUP2 MSTORE PUSH1 0x11 PUSH1 0x20 MSTORE PUSH1 0x40 SWAP1 KECCAK256 SLOAD PUSH1 0xFF AND ISZERO JUMPDEST DUP1 ISZERO PUSH2 0x2026 JUMPI POP PUSH1 0x27 SLOAD PUSH4 0x1000000 SWAP1 DIV PUSH1 0xFF AND ISZERO JUMPDEST DUP1 ISZERO PUSH2 0x204B JUMPI POP PUSH1 0x1 PUSH1 0x1 PUSH1 0xA0 SHL SUB DUP5 AND PUSH1 0x0 SWAP1 DUP2 MSTORE PUSH1 0x10 PUSH1 0x20 MSTORE PUSH1 0x40 SWAP1 KECCAK256 SLOAD PUSH1 0xFF AND ISZERO JUMPDEST ISZERO PUSH2 0x207A JUMPI PUSH1 0x27 DUP1 SLOAD PUSH4 0xFF000000 NOT AND PUSH4 0x1000000 OR SWAP1 SSTORE PUSH2 0x206C DUP2 PUSH2 0xAD0 JUMP JUMPDEST PUSH1 0x27 DUP1 SLOAD PUSH4 0xFF000000 NOT AND SWAP1 SSTORE JUMPDEST PUSH2 0x2083 DUP5 PUSH2 0x13B3 JUMP JUMPDEST ISZERO PUSH2 0x2107 JUMPI PUSH1 0x27 DUP1 SLOAD PUSH4 0xFF000000 NOT AND PUSH4 0x1000000 OR SWAP1 SSTORE PUSH1 0xD SLOAD PUSH1 0x40 DUP1 MLOAD PUSH4 0x8D50D499 PUSH1 0xE0 SHL DUP2 MSTORE SWAP1 MLOAD PUSH1 0x1 PUSH1 0x1 PUSH1 0xA0 SHL SUB SWAP1 SWAP3 AND SWAP2 PUSH4 0x8D50D499 SWAP2 PUSH1 0x4 DUP1 DUP3 ADD SWAP3 PUSH1 0x0 SWAP3 SWAP1 SWAP2 SWAP1 DUP3 SWAP1 SUB ADD DUP2 DUP4 DUP8 DUP1 EXTCODESIZE ISZERO DUP1 ISZERO PUSH2 0x20E1 JUMPI PUSH1 0x0 DUP1 REVERT JUMPDEST POP GAS CALL ISZERO DUP1 ISZERO PUSH2 0x20F5 JUMPI RETURNDATASIZE PUSH1 0x0 DUP1 RETURNDATACOPY RETURNDATASIZE PUSH1 0x0 REVERT JUMPDEST POP POP PUSH1 0x27 DUP1 SLOAD PUSH4 0xFF000000 NOT AND SWAP1 SSTORE POP POP JUMPDEST PUSH1 0x1 PUSH1 0x1 PUSH1 0xA0 SHL SUB DUP5 AND PUSH1 0x0 SWAP1 DUP2 MSTORE PUSH1 0xF PUSH1 0x20 MSTORE PUSH1 0x40 SWAP1 KECCAK256 SLOAD DUP3 DUP2 LT ISZERO PUSH2 0x217F JUMPI PUSH1 0x40 MLOAD PUSH3 0x461BCD PUSH1 0xE5 SHL DUP2 MSTORE PUSH1 0x20 PUSH1 0x4 DUP3 ADD MSTORE PUSH1 0x26 PUSH1 0x24 DUP3 ADD MSTORE PUSH32 0x45524332303A207472616E7366657220616D6F756E7420657863656564732062 PUSH1 0x44 DUP3 ADD MSTORE PUSH6 0x616C616E6365 PUSH1 0xD0 SHL PUSH1 0x64 DUP3 ADD MSTORE PUSH1 0x84 ADD PUSH2 0x97A JUMP JUMPDEST PUSH1 0x0 PUSH2 0x218B DUP7 DUP7 PUSH2 0x26A2 JUMP JUMPDEST PUSH2 0x2195 JUMPI DUP4 PUSH2 0x21A0 JUMP JUMPDEST PUSH2 0x21A0 DUP7 DUP7 DUP7 PUSH2 0x2742 JUMP JUMPDEST SWAP1 POP PUSH2 0x21AC DUP3 DUP6 PUSH2 0x268A JUMP JUMPDEST PUSH1 0x1 PUSH1 0x1 PUSH1 0xA0 SHL SUB DUP8 DUP2 AND PUSH1 0x0 DUP2 DUP2 MSTORE PUSH1 0xF PUSH1 0x20 SWAP1 DUP2 MSTORE PUSH1 0x40 DUP1 DUP4 KECCAK256 SWAP6 SWAP1 SWAP6 SSTORE SWAP3 DUP10 AND DUP1 DUP3 MSTORE SWAP1 DUP5 SWAP1 KECCAK256 DUP1 SLOAD DUP7 ADD SWAP1 SSTORE SWAP3 MLOAD DUP5 DUP2 MSTORE SWAP1 SWAP2 PUSH1 0x0 DUP1 MLOAD PUSH1 0x20 PUSH2 0x2DAD DUP4 CODECOPY DUP2 MLOAD SWAP2 MSTORE SWAP2 ADD PUSH1 0x40 MLOAD DUP1 SWAP2 SUB SWAP1 LOG3 PUSH2 0x19D1 JUMP JUMPDEST PUSH1 0x0 PUSH2 0x220D DUP3 DUP5 PUSH2 0x2B5B JUMP JUMPDEST SWAP4 SWAP3 POP POP POP JUMP JUMPDEST PUSH1 0x0 PUSH2 0x2221 TIMESTAMP PUSH1 0x3C PUSH2 0x2B5B JUMP JUMPDEST PUSH1 0x40 DUP1 MLOAD PUSH1 0x2 DUP1 DUP3 MSTORE PUSH1 0x60 DUP3 ADD DUP4 MSTORE SWAP3 SWAP4 POP PUSH1 0x0 SWAP3 SWAP1 SWAP2 PUSH1 0x20 DUP4 ADD SWAP1 DUP1 CALLDATASIZE DUP4 CALLDATACOPY ADD SWAP1 POP POP SWAP1 POP ADDRESS DUP2 PUSH1 0x0 DUP2 MLOAD DUP2 LT PUSH2 0x225B JUMPI PUSH2 0x225B PUSH2 0x2D0C JUMP JUMPDEST PUSH1 0x1 PUSH1 0x1 PUSH1 0xA0 SHL SUB SWAP3 DUP4 AND PUSH1 0x20 SWAP2 DUP3 MUL SWAP3 SWAP1 SWAP3 ADD ADD MSTORE PUSH1 0x7 SLOAD DUP3 MLOAD SWAP2 AND SWAP1 DUP3 SWAP1 PUSH1 0x1 SWAP1 DUP2 LT PUSH2 0x228C JUMPI PUSH2 0x228C PUSH2 0x2D0C JUMP JUMPDEST PUSH1 0x1 PUSH1 0x1 PUSH1 0xA0 SHL SUB SWAP3 DUP4 AND PUSH1 0x20 SWAP2 DUP3 MUL SWAP3 SWAP1 SWAP3 ADD ADD MSTORE PUSH1 0x6 SLOAD PUSH1 0x40 MLOAD PUSH4 0x38ED1739 PUSH1 0xE0 SHL DUP2 MSTORE SWAP2 AND SWAP1 PUSH4 0x38ED1739 SWAP1 PUSH2 0x22D2 SWAP1 DUP8 SWAP1 PUSH1 0x0 SWAP1 DUP7 SWAP1 DUP10 SWAP1 DUP10 SWAP1 PUSH1 0x4 ADD PUSH2 0x2D3B JUMP JUMPDEST PUSH1 0x0 PUSH1 0x40 MLOAD DUP1 DUP4 SUB DUP2 PUSH1 0x0 DUP8 GAS CALL ISZERO DUP1 ISZERO PUSH2 0x22F1 JUMPI RETURNDATASIZE PUSH1 0x0 DUP1 RETURNDATACOPY RETURNDATASIZE PUSH1 0x0 REVERT JUMPDEST POP POP POP POP PUSH1 0x40 MLOAD RETURNDATASIZE PUSH1 0x0 DUP3 RETURNDATACOPY PUSH1 0x1F RETURNDATASIZE SWAP1 DUP2 ADD PUSH1 0x1F NOT AND DUP3 ADD PUSH1 0x40 MSTORE PUSH2 0x843 SWAP2 SWAP1 DUP2 ADD SWAP1 PUSH2 0x2C4E JUMP JUMPDEST PUSH1 0x1 PUSH1 0x1 PUSH1 0xA0 SHL SUB DUP3 AND PUSH2 0x2379 JUMPI PUSH1 0x40 MLOAD PUSH3 0x461BCD PUSH1 0xE5 SHL DUP2 MSTORE PUSH1 0x20 PUSH1 0x4 DUP3 ADD MSTORE PUSH1 0x21 PUSH1 0x24 DUP3 ADD MSTORE PUSH32 0x45524332303A206275726E2066726F6D20746865207A65726F20616464726573 PUSH1 0x44 DUP3 ADD MSTORE PUSH1 0x73 PUSH1 0xF8 SHL PUSH1 0x64 DUP3 ADD MSTORE PUSH1 0x84 ADD PUSH2 0x97A JUMP JUMPDEST PUSH1 0x1 PUSH1 0x1 PUSH1 0xA0 SHL SUB DUP3 AND PUSH1 0x0 SWAP1 DUP2 MSTORE PUSH1 0x20 DUP2 SWAP1 MSTORE PUSH1 0x40 SWAP1 KECCAK256 SLOAD DUP2 DUP2 LT ISZERO PUSH2 0x23ED JUMPI PUSH1 0x40 MLOAD PUSH3 0x461BCD PUSH1 0xE5 SHL DUP2 MSTORE PUSH1 0x20 PUSH1 0x4 DUP3 ADD MSTORE PUSH1 0x22 PUSH1 0x24 DUP3 ADD MSTORE PUSH32 0x45524332303A206275726E20616D6F756E7420657863656564732062616C616E PUSH1 0x44 DUP3 ADD MSTORE PUSH2 0x6365 PUSH1 0xF0 SHL PUSH1 0x64 DUP3 ADD MSTORE PUSH1 0x84 ADD PUSH2 0x97A JUMP JUMPDEST PUSH1 0x1 PUSH1 0x1 PUSH1 0xA0 SHL SUB DUP4 AND PUSH1 0x0 SWAP1 DUP2 MSTORE PUSH1 0x20 DUP2 SWAP1 MSTORE PUSH1 0x40 DUP2 KECCAK256 DUP4 DUP4 SUB SWAP1 SSTORE PUSH1 0x2 DUP1 SLOAD DUP5 SWAP3 SWAP1 PUSH2 0x241C SWAP1 DUP5 SWAP1 PUSH2 0x2B73 JUMP JUMPDEST SWAP1 SWAP2 SSTORE POP POP PUSH1 0x40 MLOAD DUP3 DUP2 MSTORE PUSH1 0x0 SWAP1 PUSH1 0x1 PUSH1 0x1 PUSH1 0xA0 SHL SUB DUP6 AND SWAP1 PUSH1 0x0 DUP1 MLOAD PUSH1 0x20 PUSH2 0x2DAD DUP4 CODECOPY DUP2 MLOAD SWAP2 MSTORE SWAP1 PUSH1 0x20 ADD PUSH1 0x40 MLOAD DUP1 SWAP2 SUB SWAP1 LOG3 POP POP POP JUMP JUMPDEST PUSH1 0x1 PUSH1 0x1 PUSH1 0xA0 SHL SUB DUP3 AND PUSH1 0x0 SWAP1 DUP2 MSTORE PUSH1 0x11 PUSH1 0x20 MSTORE PUSH1 0x40 SWAP1 KECCAK256 SLOAD PUSH1 0xFF AND PUSH2 0x24BD JUMPI PUSH1 0x40 MLOAD PUSH3 0x461BCD PUSH1 0xE5 SHL DUP2 MSTORE PUSH1 0x20 PUSH1 0x4 DUP3 ADD MSTORE PUSH1 0x1A PUSH1 0x24 DUP3 ADD MSTORE PUSH32 0x4974206D7573742062652061207061697220636F6E7472616374000000000000 PUSH1 0x44 DUP3 ADD MSTORE PUSH1 0x64 ADD PUSH2 0x97A JUMP JUMPDEST DUP1 PUSH1 0x15 PUSH1 0x0 DUP3 DUP3 SLOAD PUSH2 0x24CF SWAP2 SWAP1 PUSH2 0x2B73 JUMP JUMPDEST SWAP1 SWAP2 SSTORE POP POP PUSH1 0x1 PUSH1 0x1 PUSH1 0xA0 SHL SUB DUP3 AND PUSH1 0x0 SWAP1 DUP2 MSTORE PUSH1 0xF PUSH1 0x20 MSTORE PUSH1 0x40 DUP2 KECCAK256 DUP1 SLOAD DUP4 SWAP3 SWAP1 PUSH2 0x24FC SWAP1 DUP5 SWAP1 PUSH2 0x2B73 JUMP JUMPDEST SWAP3 POP POP DUP2 SWAP1 SSTORE POP DUP2 PUSH1 0x1 PUSH1 0x1 PUSH1 0xA0 SHL SUB AND PUSH4 0xFFF6CAE9 PUSH1 0x40 MLOAD DUP2 PUSH4 0xFFFFFFFF AND PUSH1 0xE0 SHL DUP2 MSTORE PUSH1 0x4 ADD PUSH1 0x0 PUSH1 0x40 MLOAD DUP1 DUP4 SUB DUP2 PUSH1 0x0 DUP8 DUP1 EXTCODESIZE ISZERO DUP1 ISZERO PUSH2 0x253E JUMPI PUSH1 0x0 DUP1 REVERT JUMPDEST POP GAS CALL ISZERO DUP1 ISZERO PUSH2 0x2552 JUMPI RETURNDATASIZE PUSH1 0x0 DUP1 RETURNDATACOPY RETURNDATASIZE PUSH1 0x0 REVERT JUMPDEST POP POP PUSH1 0x40 MLOAD DUP4 DUP2 MSTORE PUSH1 0x0 SWAP3 POP PUSH1 0x1 PUSH1 0x1 PUSH1 0xA0 SHL SUB DUP6 AND SWAP2 POP PUSH1 0x0 DUP1 MLOAD PUSH1 0x20 PUSH2 0x2DAD DUP4 CODECOPY DUP2 MLOAD SWAP2 MSTORE SWAP1 PUSH1 0x20 ADD PUSH1 0x40 MLOAD DUP1 SWAP2 SUB SWAP1 LOG3 POP POP JUMP JUMPDEST PUSH1 0x5 DUP1 SLOAD PUSH1 0x1 PUSH1 0x1 PUSH1 0xA0 SHL SUB DUP4 DUP2 AND PUSH1 0x1 PUSH1 0x1 PUSH1 0xA0 SHL SUB NOT DUP4 AND DUP2 OR SWAP1 SWAP4 SSTORE PUSH1 0x40 MLOAD SWAP2 AND SWAP2 SWAP1 DUP3 SWAP1 PUSH32 0x8BE0079C531659141344CD1FD0A4F28419497F9722A3DAAFE3B4186F6B6457E0 SWAP1 PUSH1 0x0 SWAP1 LOG3 POP POP JUMP JUMPDEST PUSH1 0x1 PUSH1 0x1 PUSH1 0xA0 SHL SUB DUP3 AND PUSH2 0x2631 JUMPI PUSH1 0x40 MLOAD PUSH3 0x461BCD PUSH1 0xE5 SHL DUP2 MSTORE PUSH1 0x20 PUSH1 0x4 DUP3 ADD MSTORE PUSH1 0x1F PUSH1 0x24 DUP3 ADD MSTORE PUSH32 0x45524332303A206D696E7420746F20746865207A65726F206164647265737300 PUSH1 0x44 DUP3 ADD MSTORE PUSH1 0x64 ADD PUSH2 0x97A JUMP JUMPDEST DUP1 PUSH1 0x15 PUSH1 0x0 DUP3 DUP3 SLOAD PUSH2 0x2643 SWAP2 SWAP1 PUSH2 0x2B5B JUMP JUMPDEST SWAP1 SWAP2 SSTORE POP POP PUSH1 0x1 PUSH1 0x1 PUSH1 0xA0 SHL SUB DUP3 AND PUSH1 0x0 DUP2 DUP2 MSTORE PUSH1 0xF PUSH1 0x20 SWAP1 DUP2 MSTORE PUSH1 0x40 DUP1 DUP4 KECCAK256 DUP1 SLOAD DUP7 ADD SWAP1 SSTORE MLOAD DUP5 DUP2 MSTORE PUSH1 0x0 DUP1 MLOAD PUSH1 0x20 PUSH2 0x2DAD DUP4 CODECOPY DUP2 MLOAD SWAP2 MSTORE SWAP2 ADD PUSH1 0x40 MLOAD DUP1 SWAP2 SUB SWAP1 LOG3 POP POP JUMP JUMPDEST PUSH1 0x0 PUSH2 0x220D DUP3 DUP5 PUSH2 0x2B73 JUMP JUMPDEST PUSH1 0x0 PUSH2 0x220D DUP3 DUP5 PUSH2 0x2B01 JUMP JUMPDEST PUSH1 0x1 PUSH1 0x1 PUSH1 0xA0 SHL SUB DUP3 AND PUSH1 0x0 SWAP1 DUP2 MSTORE PUSH1 0x10 PUSH1 0x20 MSTORE PUSH1 0x40 DUP2 KECCAK256 SLOAD PUSH1 0xFF AND DUP1 PUSH2 0x26E1 JUMPI POP PUSH1 0x1 PUSH1 0x1 PUSH1 0xA0 SHL SUB DUP3 AND PUSH1 0x0 SWAP1 DUP2 MSTORE PUSH1 0x10 PUSH1 0x20 MSTORE PUSH1 0x40 SWAP1 KECCAK256 SLOAD PUSH1 0xFF AND JUMPDEST ISZERO PUSH2 0x26EE JUMPI POP PUSH1 0x0 PUSH2 0x798 JUMP JUMPDEST PUSH1 0x1 PUSH1 0x1 PUSH1 0xA0 SHL SUB DUP4 AND PUSH1 0x0 SWAP1 DUP2 MSTORE PUSH1 0x11 PUSH1 0x20 MSTORE PUSH1 0x40 SWAP1 KECCAK256 SLOAD PUSH1 0xFF AND DUP1 PUSH2 0x272D JUMPI POP PUSH1 0x1 PUSH1 0x1 PUSH1 0xA0 SHL SUB DUP3 AND PUSH1 0x0 SWAP1 DUP2 MSTORE PUSH1 0x11 PUSH1 0x20 MSTORE PUSH1 0x40 SWAP1 KECCAK256 SLOAD PUSH1 0xFF AND JUMPDEST ISZERO PUSH2 0x273A JUMPI POP PUSH1 0x1 PUSH2 0x798 JUMP JUMPDEST POP PUSH1 0x0 PUSH2 0x798 JUMP JUMPDEST PUSH1 0x1 PUSH1 0x1 PUSH1 0xA0 SHL SUB DUP3 AND PUSH1 0x0 SWAP1 DUP2 MSTORE PUSH1 0x11 PUSH1 0x20 MSTORE PUSH1 0x40 DUP2 KECCAK256 SLOAD DUP2 SWAP1 DUP2 SWAP1 PUSH1 0xFF AND ISZERO PUSH2 0x276D JUMPI PUSH1 0x1E SLOAD SWAP2 POP JUMPDEST PUSH1 0x1 PUSH1 0x1 PUSH1 0xA0 SHL SUB DUP7 AND PUSH1 0x0 SWAP1 DUP2 MSTORE PUSH1 0x11 PUSH1 0x20 MSTORE PUSH1 0x40 SWAP1 KECCAK256 SLOAD PUSH1 0xFF AND ISZERO PUSH2 0x2794 JUMPI PUSH1 0x1D SLOAD SWAP2 POP JUMPDEST PUSH1 0x64 PUSH2 0x27A0 DUP6 DUP5 PUSH2 0x2B01 JUMP JUMPDEST PUSH2 0x27AA SWAP2 SWAP1 PUSH2 0x2B20 JUMP JUMPDEST SWAP2 POP PUSH1 0x0 PUSH2 0x27B8 DUP6 DUP5 PUSH2 0x268A JUMP JUMPDEST SWAP1 POP PUSH1 0x0 PUSH2 0x27C6 DUP3 DUP8 PUSH2 0x2B73 JUMP JUMPDEST ADDRESS PUSH1 0x0 SWAP1 DUP2 MSTORE PUSH1 0xF PUSH1 0x20 MSTORE PUSH1 0x40 DUP2 KECCAK256 DUP1 SLOAD SWAP3 SWAP4 POP DUP4 SWAP3 SWAP1 SWAP2 SWAP1 PUSH2 0x27EA SWAP1 DUP5 SWAP1 PUSH2 0x2B5B JUMP JUMPDEST SWAP2 DUP3 SWAP1 SSTORE POP ADDRESS PUSH1 0x0 SWAP1 DUP2 MSTORE PUSH1 0xF PUSH1 0x20 MSTORE PUSH1 0x40 DUP2 KECCAK256 SWAP2 SWAP1 SWAP2 SSTORE PUSH1 0x19 DUP1 SLOAD DUP5 SWAP4 POP SWAP1 SWAP2 SWAP1 PUSH2 0x2817 SWAP1 DUP5 SWAP1 PUSH2 0x2B5B JUMP JUMPDEST SWAP1 SWAP2 SSTORE POP POP PUSH1 0x40 MLOAD DUP2 DUP2 MSTORE ADDRESS SWAP1 PUSH1 0x1 PUSH1 0x1 PUSH1 0xA0 SHL SUB DUP11 AND SWAP1 PUSH1 0x0 DUP1 MLOAD PUSH1 0x20 PUSH2 0x2DAD DUP4 CODECOPY DUP2 MLOAD SWAP2 MSTORE SWAP1 PUSH1 0x20 ADD PUSH1 0x40 MLOAD DUP1 SWAP2 SUB SWAP1 LOG3 POP SWAP7 SWAP6 POP POP POP POP POP POP JUMP JUMPDEST PUSH1 0x0 PUSH1 0x20 DUP1 DUP4 MSTORE DUP4 MLOAD DUP1 DUP3 DUP6 ADD MSTORE PUSH1 0x0 JUMPDEST DUP2 DUP2 LT ISZERO PUSH2 0x2882 JUMPI DUP6 DUP2 ADD DUP4 ADD MLOAD DUP6 DUP3 ADD PUSH1 0x40 ADD MSTORE DUP3 ADD PUSH2 0x2866 JUMP JUMPDEST DUP2 DUP2 GT ISZERO PUSH2 0x2894 JUMPI PUSH1 0x0 PUSH1 0x40 DUP4 DUP8 ADD ADD MSTORE JUMPDEST POP PUSH1 0x1F ADD PUSH1 0x1F NOT AND SWAP3 SWAP1 SWAP3 ADD PUSH1 0x40 ADD SWAP4 SWAP3 POP POP POP JUMP JUMPDEST DUP1 CALLDATALOAD PUSH1 0x1 PUSH1 0x1 PUSH1 0xA0 SHL SUB DUP2 AND DUP2 EQ PUSH2 0x28C1 JUMPI PUSH1 0x0 DUP1 REVERT JUMPDEST SWAP2 SWAP1 POP JUMP JUMPDEST PUSH1 0x0 DUP1 PUSH1 0x40 DUP4 DUP6 SUB SLT ISZERO PUSH2 0x28D9 JUMPI PUSH1 0x0 DUP1 REVERT JUMPDEST PUSH2 0x28E2 DUP4 PUSH2 0x28AA JUMP JUMPDEST SWAP5 PUSH1 0x20 SWAP4 SWAP1 SWAP4 ADD CALLDATALOAD SWAP4 POP POP POP JUMP JUMPDEST PUSH1 0x0 DUP1 PUSH1 0x40 DUP4 DUP6 SUB SLT ISZERO PUSH2 0x2903 JUMPI PUSH1 0x0 DUP1 REVERT JUMPDEST POP POP DUP1 CALLDATALOAD SWAP3 PUSH1 0x20 SWAP1 SWAP2 ADD CALLDATALOAD SWAP2 POP JUMP JUMPDEST PUSH1 0x0 DUP1 PUSH1 0x0 PUSH1 0x60 DUP5 DUP7 SUB SLT ISZERO PUSH2 0x2927 JUMPI PUSH1 0x0 DUP1 REVERT JUMPDEST PUSH2 0x2930 DUP5 PUSH2 0x28AA JUMP JUMPDEST SWAP3 POP PUSH2 0x293E PUSH1 0x20 DUP6 ADD PUSH2 0x28AA JUMP JUMPDEST SWAP2 POP PUSH1 0x40 DUP5 ADD CALLDATALOAD SWAP1 POP SWAP3 POP SWAP3 POP SWAP3 JUMP JUMPDEST PUSH1 0x0 PUSH1 0x20 DUP3 DUP5 SUB SLT ISZERO PUSH2 0x2960 JUMPI PUSH1 0x0 DUP1 REVERT JUMPDEST POP CALLDATALOAD SWAP2 SWAP1 POP JUMP JUMPDEST DUP1 ISZERO ISZERO DUP2 EQ PUSH2 0xEA0 JUMPI PUSH1 0x0 DUP1 REVERT JUMPDEST PUSH1 0x0 PUSH1 0x20 DUP3 DUP5 SUB SLT ISZERO PUSH2 0x2987 JUMPI PUSH1 0x0 DUP1 REVERT JUMPDEST DUP2 CALLDATALOAD PUSH2 0x220D DUP2 PUSH2 0x2967 JUMP JUMPDEST PUSH1 0x0 DUP1 PUSH1 0x0 DUP1 PUSH1 0x80 DUP6 DUP8 SUB SLT ISZERO PUSH2 0x29A8 JUMPI PUSH1 0x0 DUP1 REVERT JUMPDEST PUSH2 0x29B1 DUP6 PUSH2 0x28AA JUMP JUMPDEST SWAP4 POP PUSH2 0x29BF PUSH1 0x20 DUP7 ADD PUSH2 0x28AA JUMP JUMPDEST SWAP3 POP PUSH2 0x29CD PUSH1 0x40 DUP7 ADD PUSH2 0x28AA JUMP JUMPDEST SWAP2 POP PUSH2 0x29DB PUSH1 0x60 DUP7 ADD PUSH2 0x28AA JUMP JUMPDEST SWAP1 POP SWAP3 SWAP6 SWAP2 SWAP5 POP SWAP3 POP JUMP JUMPDEST PUSH1 0x0 PUSH1 0x20 DUP3 DUP5 SUB SLT ISZERO PUSH2 0x29F8 JUMPI PUSH1 0x0 DUP1 REVERT JUMPDEST PUSH2 0x220D DUP3 PUSH2 0x28AA JUMP JUMPDEST PUSH1 0x0 DUP1 PUSH1 0x40 DUP4 DUP6 SUB SLT ISZERO PUSH2 0x2A14 JUMPI PUSH1 0x0 DUP1 REVERT JUMPDEST PUSH2 0x2A1D DUP4 PUSH2 0x28AA JUMP JUMPDEST SWAP2 POP PUSH1 0x20 DUP4 ADD CALLDATALOAD PUSH2 0x2A2D DUP2 PUSH2 0x2967 JUMP JUMPDEST DUP1 SWAP2 POP POP SWAP3 POP SWAP3 SWAP1 POP JUMP JUMPDEST PUSH1 0x0 DUP1 PUSH1 0x40 DUP4 DUP6 SUB SLT ISZERO PUSH2 0x2A4B JUMPI PUSH1 0x0 DUP1 REVERT JUMPDEST DUP3 CALLDATALOAD PUSH2 0x28E2 DUP2 PUSH2 0x2967 JUMP JUMPDEST PUSH1 0x0 DUP1 PUSH1 0x40 DUP4 DUP6 SUB SLT ISZERO PUSH2 0x2A69 JUMPI PUSH1 0x0 DUP1 REVERT JUMPDEST PUSH2 0x2A72 DUP4 PUSH2 0x28AA JUMP JUMPDEST SWAP2 POP PUSH2 0x2A80 PUSH1 0x20 DUP5 ADD PUSH2 0x28AA JUMP JUMPDEST SWAP1 POP SWAP3 POP SWAP3 SWAP1 POP JUMP JUMPDEST PUSH1 0x1 DUP2 DUP2 SHR SWAP1 DUP3 AND DUP1 PUSH2 0x2A9D JUMPI PUSH1 0x7F DUP3 AND SWAP2 POP JUMPDEST PUSH1 0x20 DUP3 LT DUP2 SUB PUSH2 0x14BF JUMPI PUSH4 0x4E487B71 PUSH1 0xE0 SHL PUSH1 0x0 MSTORE PUSH1 0x22 PUSH1 0x4 MSTORE PUSH1 0x24 PUSH1 0x0 REVERT JUMPDEST PUSH1 0x0 DUP1 PUSH1 0x0 PUSH1 0x60 DUP5 DUP7 SUB SLT ISZERO PUSH2 0x2AD2 JUMPI PUSH1 0x0 DUP1 REVERT JUMPDEST DUP4 MLOAD SWAP3 POP PUSH1 0x20 DUP5 ADD MLOAD SWAP2 POP PUSH1 0x40 DUP5 ADD MLOAD SWAP1 POP SWAP3 POP SWAP3 POP SWAP3 JUMP JUMPDEST PUSH4 0x4E487B71 PUSH1 0xE0 SHL PUSH1 0x0 MSTORE PUSH1 0x11 PUSH1 0x4 MSTORE PUSH1 0x24 PUSH1 0x0 REVERT JUMPDEST PUSH1 0x0 DUP2 PUSH1 0x0 NOT DIV DUP4 GT DUP3 ISZERO ISZERO AND ISZERO PUSH2 0x2B1B JUMPI PUSH2 0x2B1B PUSH2 0x2AEB JUMP JUMPDEST POP MUL SWAP1 JUMP JUMPDEST PUSH1 0x0 DUP3 PUSH2 0x2B3D JUMPI PUSH4 0x4E487B71 PUSH1 0xE0 SHL PUSH1 0x0 MSTORE PUSH1 0x12 PUSH1 0x4 MSTORE PUSH1 0x24 PUSH1 0x0 REVERT JUMPDEST POP DIV SWAP1 JUMP JUMPDEST PUSH1 0x0 PUSH1 0x20 DUP3 DUP5 SUB SLT ISZERO PUSH2 0x2B54 JUMPI PUSH1 0x0 DUP1 REVERT JUMPDEST POP MLOAD SWAP2 SWAP1 POP JUMP JUMPDEST PUSH1 0x0 DUP3 NOT DUP3 GT ISZERO PUSH2 0x2B6E JUMPI PUSH2 0x2B6E PUSH2 0x2AEB JUMP JUMPDEST POP ADD SWAP1 JUMP JUMPDEST PUSH1 0x0 DUP3 DUP3 LT ISZERO PUSH2 0x2B85 JUMPI PUSH2 0x2B85 PUSH2 0x2AEB JUMP JUMPDEST POP SUB SWAP1 JUMP JUMPDEST PUSH1 0x0 PUSH1 0x20 DUP3 DUP5 SUB SLT ISZERO PUSH2 0x2B9C JUMPI PUSH1 0x0 DUP1 REVERT JUMPDEST DUP2 MLOAD PUSH2 0x220D DUP2 PUSH2 0x2967 JUMP JUMPDEST PUSH1 0x20 DUP1 DUP3 MSTORE DUP2 DUP2 ADD MSTORE PUSH32 0x4F776E61626C653A2063616C6C6572206973206E6F7420746865206F776E6572 PUSH1 0x40 DUP3 ADD MSTORE PUSH1 0x60 ADD SWAP1 JUMP JUMPDEST PUSH1 0x0 PUSH1 0x40 DUP3 ADD DUP5 DUP4 MSTORE PUSH1 0x20 PUSH1 0x40 DUP2 DUP6 ADD MSTORE DUP2 DUP6 SLOAD DUP1 DUP5 MSTORE PUSH1 0x60 DUP7 ADD SWAP2 POP DUP7 PUSH1 0x0 MSTORE DUP3 PUSH1 0x0 KECCAK256 SWAP4 POP PUSH1 0x0 JUMPDEST DUP2 DUP2 LT ISZERO PUSH2 0x2C2B JUMPI DUP5 SLOAD PUSH1 0x1 PUSH1 0x1 PUSH1 0xA0 SHL SUB AND DUP4 MSTORE PUSH1 0x1 SWAP5 DUP6 ADD SWAP5 SWAP3 DUP5 ADD SWAP3 ADD PUSH2 0x2C06 JUMP JUMPDEST POP SWAP1 SWAP8 SWAP7 POP POP POP POP POP POP POP JUMP JUMPDEST PUSH4 0x4E487B71 PUSH1 0xE0 SHL PUSH1 0x0 MSTORE PUSH1 0x41 PUSH1 0x4 MSTORE PUSH1 0x24 PUSH1 0x0 REVERT JUMPDEST PUSH1 0x0 PUSH1 0x20 DUP1 DUP4 DUP6 SUB SLT ISZERO PUSH2 0x2C61 JUMPI PUSH1 0x0 DUP1 REVERT JUMPDEST DUP3 MLOAD PUSH8 0xFFFFFFFFFFFFFFFF DUP1 DUP3 GT ISZERO PUSH2 0x2C79 JUMPI PUSH1 0x0 DUP1 REVERT JUMPDEST DUP2 DUP6 ADD SWAP2 POP DUP6 PUSH1 0x1F DUP4 ADD SLT PUSH2 0x2C8D JUMPI PUSH1 0x0 DUP1 REVERT JUMPDEST DUP2 MLOAD DUP2 DUP2 GT ISZERO PUSH2 0x2C9F JUMPI PUSH2 0x2C9F PUSH2 0x2C38 JUMP JUMPDEST DUP1 PUSH1 0x5 SHL PUSH1 0x40 MLOAD PUSH1 0x1F NOT PUSH1 0x3F DUP4 ADD AND DUP2 ADD DUP2 DUP2 LT DUP6 DUP3 GT OR ISZERO PUSH2 0x2CC4 JUMPI PUSH2 0x2CC4 PUSH2 0x2C38 JUMP JUMPDEST PUSH1 0x40 MSTORE SWAP2 DUP3 MSTORE DUP5 DUP3 ADD SWAP3 POP DUP4 DUP2 ADD DUP6 ADD SWAP2 DUP9 DUP4 GT ISZERO PUSH2 0x2CE2 JUMPI PUSH1 0x0 DUP1 REVERT JUMPDEST SWAP4 DUP6 ADD SWAP4 JUMPDEST DUP3 DUP6 LT ISZERO PUSH2 0x2D00 JUMPI DUP5 MLOAD DUP5 MSTORE SWAP4 DUP6 ADD SWAP4 SWAP3 DUP6 ADD SWAP3 PUSH2 0x2CE7 JUMP JUMPDEST SWAP9 SWAP8 POP POP POP POP POP POP POP POP JUMP JUMPDEST PUSH4 0x4E487B71 PUSH1 0xE0 SHL PUSH1 0x0 MSTORE PUSH1 0x32 PUSH1 0x4 MSTORE PUSH1 0x24 PUSH1 0x0 REVERT JUMPDEST PUSH1 0x0 PUSH1 0x1 DUP3 ADD PUSH2 0x2D34 JUMPI PUSH2 0x2D34 PUSH2 0x2AEB JUMP JUMPDEST POP PUSH1 0x1 ADD SWAP1 JUMP JUMPDEST PUSH1 0x0 PUSH1 0xA0 DUP3 ADD DUP8 DUP4 MSTORE PUSH1 0x20 DUP8 DUP2 DUP6 ADD MSTORE PUSH1 0xA0 PUSH1 0x40 DUP6 ADD MSTORE DUP2 DUP8 MLOAD DUP1 DUP5 MSTORE PUSH1 0xC0 DUP7 ADD SWAP2 POP DUP3 DUP10 ADD SWAP4 POP PUSH1 0x0 JUMPDEST DUP2 DUP2 LT ISZERO PUSH2 0x2D8B JUMPI DUP5 MLOAD PUSH1 0x1 PUSH1 0x1 PUSH1 0xA0 SHL SUB AND DUP4 MSTORE SWAP4 DUP4 ADD SWAP4 SWAP2 DUP4 ADD SWAP2 PUSH1 0x1 ADD PUSH2 0x2D66 JUMP JUMPDEST POP POP PUSH1 0x1 PUSH1 0x1 PUSH1 0xA0 SHL SUB SWAP7 SWAP1 SWAP7 AND PUSH1 0x60 DUP6 ADD MSTORE POP POP POP PUSH1 0x80 ADD MSTORE SWAP4 SWAP3 POP POP POP JUMP INVALID 0xDD CALLCODE MSTORE 0xAD SHL 0xE2 0xC8 SWAP12 PUSH10 0xC2B068FC378DAA952BA7 CALL PUSH4 0xC4A11628 CREATE2 GAS 0x4D CREATE2 0x23 0xB3 0xEF LOG2 PUSH5 0x6970667358 0x22 SLT KECCAK256 DUP1 0xE4 ADD DUP8 SHR 0x4B 0xD5 0xEE RETURNDATACOPY 0xE6 0x28 0xE9 0xFB 0xB5 0xFC 0x27 0xDA PUSH13 0xEAB6F15E93910E12E7AAF2730B PUSH22 0x64736F6C634300080D00330000000000000000000000 ",
    "sha1": "19bc2680d2d3190ec2de10df27cc30ad7d94f876",
    "source": "// SPDX-License-Identifier: GPL-3.0\n\npragma solidity 0.8.13;\n\nimport \"@openzeppelin/contracts/token/ERC20/extensions/ERC20Burnable.sol\";\nimport \"@openzeppelin/contracts/token/ERC20/ERC20.sol\";\nimport \"@openzeppelin/contracts/token/ERC20/IERC20.sol\";\nimport \"@openzeppelin/contracts/access/Ownable.sol\";\nimport \"@openzeppelin/contracts/utils/math/SafeMath.sol\";\n\n// import \"@openzeppelin/contracts/token/ERC20/extensions/draft-ERC20Permit.sol\";\n\nlibrary SafeMathInt {\n    int256 private constant MIN_INT256 = int256(1) << 255;\n    int256 private constant MAX_INT256 = ~(int256(1) << 255);\n\n    function mul(int256 a, int256 b) internal pure returns (int256) {\n        int256 c = a * b;\n\n        require(\n            c != MIN_INT256 || (a & MIN_INT256) != (b & MIN_INT256),\n            \"mul: invalid with MIN_INT256\"\n        );\n        require((b == 0) || (c / b == a), \"mul: combi values invalid\");\n        return c;\n    }\n\n    function div(int256 a, int256 b) internal pure returns (int256) {\n        require(b != -1 || a != MIN_INT256, \"div: b == 1 or a == MIN_INT256\");\n        return a / b;\n    }\n\n    function sub(int256 a, int256 b) internal pure returns (int256) {\n        int256 c = a - b;\n        require(\n            (b >= 0 && c <= a) || (b < 0 && c > a),\n            \"sub: combi values invalid\"\n        );\n        return c;\n    }\n\n    function add(int256 a, int256 b) internal pure returns (int256) {\n        int256 c = a + b;\n        require(\n            (b >= 0 && c >= a) || (b < 0 && c < a),\n            \"add: combi values invalid\"\n        );\n        return c;\n    }\n\n    function abs(int256 a) internal pure returns (int256) {\n        require(a != MIN_INT256, \"abs: a equal MIN INT256\");\n        return a < 0 ? -a : a;\n    }\n}\n\ninterface IPancakeRouter01 {\n    function factory() external pure returns (address);\n\n    function WETH() external pure returns (address);\n\n    function addLiquidity(\n        address tokenA,\n        address tokenB,\n        uint256 amountADesired,\n        uint256 amountBDesired,\n        uint256 amountAMin,\n        uint256 amountBMin,\n        address to,\n        uint256 deadline\n    )\n        external\n        returns (\n            uint256 amountA,\n            uint256 amountB,\n            uint256 liquidity\n        );\n\n    function addLiquidityETH(\n        address token,\n        uint256 amountTokenDesired,\n        uint256 amountTokenMin,\n        uint256 amountETHMin,\n        address to,\n        uint256 deadline\n    )\n        external\n        payable\n        returns (\n            uint256 amountToken,\n            uint256 amountETH,\n            uint256 liquidity\n        );\n\n    function removeLiquidity(\n        address tokenA,\n        address tokenB,\n        uint256 liquidity,\n        uint256 amountAMin,\n        uint256 amountBMin,\n        address to,\n        uint256 deadline\n    ) external returns (uint256 amountA, uint256 amountB);\n\n    function removeLiquidityETH(\n        address token,\n        uint256 liquidity,\n        uint256 amountTokenMin,\n        uint256 amountETHMin,\n        address to,\n        uint256 deadline\n    ) external returns (uint256 amountToken, uint256 amountETH);\n\n    function removeLiquidityWithPermit(\n        address tokenA,\n        address tokenB,\n        uint256 liquidity,\n        uint256 amountAMin,\n        uint256 amountBMin,\n        address to,\n        uint256 deadline,\n        bool approveMax,\n        uint8 v,\n        bytes32 r,\n        bytes32 s\n    ) external returns (uint256 amountA, uint256 amountB);\n\n    function removeLiquidityETHWithPermit(\n        address token,\n        uint256 liquidity,\n        uint256 amountTokenMin,\n        uint256 amountETHMin,\n        address to,\n        uint256 deadline,\n        bool approveMax,\n        uint8 v,\n        bytes32 r,\n        bytes32 s\n    ) external returns (uint256 amountToken, uint256 amountETH);\n\n    function swapExactTokensForTokens(\n        uint256 amountIn,\n        uint256 amountOutMin,\n        address[] calldata path,\n        address to,\n        uint256 deadline\n    ) external returns (uint256[] memory amounts);\n\n    function swapTokensForExactTokens(\n        uint256 amountOut,\n        uint256 amountInMax,\n        address[] calldata path,\n        address to,\n        uint256 deadline\n    ) external returns (uint256[] memory amounts);\n\n    function swapExactETHForTokens(\n        uint256 amountOutMin,\n        address[] calldata path,\n        address to,\n        uint256 deadline\n    ) external payable returns (uint256[] memory amounts);\n\n    function swapTokensForExactETH(\n        uint256 amountOut,\n        uint256 amountInMax,\n        address[] calldata path,\n        address to,\n        uint256 deadline\n    ) external returns (uint256[] memory amounts);\n\n    function swapExactTokensForETH(\n        uint256 amountIn,\n        uint256 amountOutMin,\n        address[] calldata path,\n        address to,\n        uint256 deadline\n    ) external returns (uint256[] memory amounts);\n\n    function swapETHForExactTokens(\n        uint256 amountOut,\n        address[] calldata path,\n        address to,\n        uint256 deadline\n    ) external payable returns (uint256[] memory amounts);\n\n    function quote(\n        uint256 amountA,\n        uint256 reserveA,\n        uint256 reserveB\n    ) external pure returns (uint256 amountB);\n\n    function getAmountOut(\n        uint256 amountIn,\n        uint256 reserveIn,\n        uint256 reserveOut\n    ) external pure returns (uint256 amountOut);\n\n    function getAmountIn(\n        uint256 amountOut,\n        uint256 reserveIn,\n        uint256 reserveOut\n    ) external pure returns (uint256 amountIn);\n\n    function getAmountsOut(uint256 amountIn, address[] calldata path)\n        external\n        view\n        returns (uint256[] memory amounts);\n\n    function getAmountsIn(uint256 amountOut, address[] calldata path)\n        external\n        view\n        returns (uint256[] memory amounts);\n}\n\n// File: contracts\\interfaces\\IPancakeRouter02.sol\n\ninterface IPancakeRouter02 is IPancakeRouter01 {\n    function removeLiquidityETHSupportingFeeOnTransferTokens(\n        address token,\n        uint256 liquidity,\n        uint256 amountTokenMin,\n        uint256 amountETHMin,\n        address to,\n        uint256 deadline\n    ) external returns (uint256 amountETH);\n\n    function removeLiquidityETHWithPermitSupportingFeeOnTransferTokens(\n        address token,\n        uint256 liquidity,\n        uint256 amountTokenMin,\n        uint256 amountETHMin,\n        address to,\n        uint256 deadline,\n        bool approveMax,\n        uint8 v,\n        bytes32 r,\n        bytes32 s\n    ) external returns (uint256 amountETH);\n\n    function swapExactTokensForTokensSupportingFeeOnTransferTokens(\n        uint256 amountIn,\n        uint256 amountOutMin,\n        address[] calldata path,\n        address to,\n        uint256 deadline\n    ) external;\n\n    function swapExactETHForTokensSupportingFeeOnTransferTokens(\n        uint256 amountOutMin,\n        address[] calldata path,\n        address to,\n        uint256 deadline\n    ) external payable;\n\n    function swapExactTokensForETHSupportingFeeOnTransferTokens(\n        uint256 amountIn,\n        uint256 amountOutMin,\n        address[] calldata path,\n        address to,\n        uint256 deadline\n    ) external;\n}\n\ninterface IPancakeFactory {\n    function createPair(address tokenA, address tokenB)\n        external\n        returns (address pair);\n}\n\ninterface InterfaceLP {\n    function sync() external;\n}\n\ninterface ILiquidityManager {\n    function swapAndEvolve() external;\n}\n\ncontract Spice is ERC20, ERC20Burnable, Ownable {\n    using SafeMathInt for int256;\n    using SafeMath for uint256;\n\n    IPancakeRouter02 private router;\n\n    address public busd;\n    address public liquidityReceiver;\n    address public pairBusd;\n\n    address public devAndMarketingWallet;\n    address public treasuryWallet;\n    address public charityWallet;\n    address public liqudityHandlerWallet;\n\n    address presaleWithdrawWallet;\n\n    mapping(address => uint256) private _balances;\n    mapping(address => bool) _isFeeExempt;\n    mapping(address => bool) marketPairs;\n    mapping(address => mapping(address => uint256)) private _allowedFragments;\n    address[] _markerPairs;\n    address[] path = [busd, address(this)];\n\n    uint256 private _totalSupply;\n\n    uint256 initialSupply = 1000e18; //check for deploy var\n    uint256 public presalePrice = 1;\n    uint256 public presaleTimer;\n    uint256 public feeCollectedSpice;\n    uint256 public feeCollectedBusd;\n    uint256 stuckFees;\n    uint256 SWAP_TRESHOLD = 50000000;\n\n    // fees\n    uint256 public totalBuyFee = 5;\n    uint256 public totalSellFee = 10;\n    uint256 buyLP = 3;\n    uint256 buyTreasury = 2;\n\n    uint256 sellDevMarketing = 2;\n    uint256 sellLP = 3;\n    uint256 sellTreasury = 3;\n    uint256 sellCharity = 2;\n\n    uint256 MaxPoolBurn = 10000e18;\n\n    uint256 internalPoolBusdReserves;\n\n    bool public presaleOpen = false;\n    bool public presaleOver = false;\n    bool swapEnabled = false;\n    bool private inSwap;\n    address presaleContract;\n\n    modifier swapping() {\n        require(inSwap == false, \"ReentrancyGuard: reentrant call\");\n        inSwap = true;\n        _;\n        inSwap = false;\n    }\n\n    modifier isReadyForTrade() {\n        require(presaleOver == true, \"the presale has not yet ended\");\n        _;\n    }\n\n    bool evolutionEnabled = true;\n\n    constructor(\n        address _busd,\n        address _presaleContract,\n        address _router,\n        uint256 _presaleSupply\n    )\n        //busd address,\n        ERC20(\"F2Spice\", \"FSpice\")\n        ERC20Burnable()\n    {\n        busd = _busd;\n        router = IPancakeRouter02(_router);\n\n        pairBusd = IPancakeFactory(router.factory()).createPair(\n            address(this),\n            busd\n        );\n\n        address routerAddress = _router;\n        _markerPairs.push(pairBusd);\n        marketPairs[pairBusd] = true;\n\n        IERC20(busd).approve(routerAddress, type(uint256).max);\n        IERC20(busd).approve(address(pairBusd), type(uint256).max);\n        IERC20(busd).approve(address(this), type(uint256).max);\n\n        _allowedFragments[address(this)][address(router)] = type(uint256).max;\n        _allowedFragments[address(this)][address(this)] = type(uint256).max;\n        _allowedFragments[address(this)][pairBusd] = type(uint256).max;\n\n        _isFeeExempt[address(this)] = true;\n\n        _isFeeExempt[msg.sender] = true;\n        _isFeeExempt[_presaleContract] = true;\n\n        presaleContract = _presaleContract;\n        //test mints\n        _mint(msg.sender, initialSupply);\n        _mint(_presaleContract, initialSupply);\n    }\n\n    //Internal pool sell to function, takes fees in BUSD\n    function sellToThis(uint256 spiceAmount) external {\n        require(spiceAmount > 0);\n        //gets the spice price\n        uint256 spicePrice = fetchPCSPrice();\n        uint256 busdAmountBeforeFees = (spiceAmount * spicePrice) / 1e18;\n        uint256 IP_BUSD_Balance = IERC20(busd).balanceOf(address(this));\n        require(\n            busdAmountBeforeFees <= IP_BUSD_Balance,\n            \"insufficient liquidity in the internal pool\"\n        );\n        //fees\n        uint256 fee = (busdAmountBeforeFees * totalSellFee) / 100;\n        feeCollectedBusd += fee;\n        //amount after fees\n        uint256 sellAmount = busdAmountBeforeFees - fee;\n\n        //burns all spice sent to contract\n        _balances[msg.sender] -= spiceAmount;\n        _totalSupply -= spiceAmount;\n        internalPoolBusdReserves -= busdAmountBeforeFees;\n\n        ILPTransferFees(false, busdAmountBeforeFees);\n        IERC20(busd).transfer(msg.sender, sellAmount);\n\n        emit Transfer(msg.sender, address(0), spiceAmount);\n    }\n\n    //Internal pool buy from function, takes fees in BUSD\n    function purchaseFromThis(uint256 busdAmount) external {\n        require(busdAmount > 0);\n        //fetch spice price\n        uint256 spicePrice = fetchPCSPrice();\n        // get fees\n        uint256 fee = (busdAmount * totalBuyFee) / 100;\n        feeCollectedBusd += fee;\n        //busd received\n        uint256 busdReceived = busdAmount - fee;\n        //send busd yo contract with fees\n        uint256 spiceAmount = (busdReceived * 1e18) / spicePrice;\n        IERC20(busd).transferFrom(msg.sender, address(this), busdAmount);\n        ILPTransferFees(true, busdAmount);\n        //mint token to sender's balances\n        _mint(msg.sender, spiceAmount);\n        internalPoolBusdReserves += busdReceived;\n    }\n\n    //helper function that allows the contract to swap with PCS pool\n    function _swapSpiceForBusd(uint256 tokenAmount, address receiver) private {\n        uint256 deadline = block.timestamp + 1 minutes;\n        address[] memory cvxPath = new address[](2);\n        cvxPath[0] = address(this);\n        cvxPath[1] = busd;\n        router.swapExactTokensForTokens(\n            tokenAmount,\n            0,\n            cvxPath,\n            receiver,\n            deadline\n        );\n    }\n\n    //check\n    //set accounts that are exempt from fees\n    function setFeeExempt(address _addr, bool _value) external onlyOwner {\n        require(_isFeeExempt[_addr] != _value, \"Not changed\");\n        _isFeeExempt[_addr] = _value;\n        emit SetFeeExempted(_addr, _value);\n    }\n\n    function setPresaleWallet(address _presaleC) external onlyOwner {\n        presaleContract = _presaleC;\n    }\n\n    //ERC20 overidden functions\n\n    //check\n    function transfer(address to, uint256 amount)\n        public\n        virtual\n        override\n        returns (bool)\n    {\n        address owner = _msgSender();\n        _transfer(owner, to, amount);\n        return true;\n    }\n\n    function transferFrom(\n        address from,\n        address to,\n        uint256 amount\n    ) public virtual override returns (bool) {\n        address spender = _msgSender();\n        _spendAllowanceForUser(from, spender, amount);\n        _transfer(from, to, amount);\n        return true;\n    }\n\n    function _spendAllowanceForUser(\n        address owner,\n        address spender,\n        uint256 amount\n    ) internal virtual {\n        uint256 currentAllowance = _allowedFragments[owner][spender];\n        if (currentAllowance != type(uint256).max) {\n            require(\n                currentAllowance >= amount,\n                \"ERC20: insufficient allowance\"\n            );\n            unchecked {\n                _approve(owner, spender, currentAllowance - amount);\n            }\n        }\n    }\n\n    function _transfer(\n        address from,\n        address to,\n        uint256 amount\n    ) internal virtual override {\n        require(from != address(0), \"ERC20: transfer from the zero address\");\n        require(to != address(0), \"ERC20: transfer to the zero address\");\n\n        _beforeTokenTransfer(from, to, amount);\n        uint256 feesCollected = feeCollectedSpice;\n\n        if (\n            canSwapFees(feesCollected) &&\n            !marketPairs[from] &&\n            !inSwap &&\n            !_isFeeExempt[from]\n        ) {\n            inSwap = true;\n            swapAndTransferFees(feesCollected);\n            inSwap = false;\n        }\n\n        if (canEvolve(from)) {\n            inSwap = true;\n            ILiquidityManager(liqudityHandlerWallet).swapAndEvolve();\n            inSwap = false;\n        }\n\n        uint256 fromBalance = _balances[from];\n\n        require(\n            fromBalance >= amount,\n            \"ERC20: transfer amount exceeds balance\"\n        );\n        uint256 amountReceived = _shouldTakeFee(from, to)\n            ? takeFees(from, to, amount)\n            : amount;\n\n        unchecked {\n            _balances[from] = fromBalance.sub(amount);\n            // Overflow not possible: the sum of all balances is capped by totalSupply, and the sum is preserved by\n            // decrementing then incrementing.\n            _balances[to] += amountReceived;\n        }\n\n        emit Transfer(from, to, amountReceived);\n\n        _afterTokenTransfer(from, to, amountReceived);\n    }\n\n    //check\n    //set take fee amount returns amount minus fees\n    function takeFees(\n        address sender,\n        address recipient,\n        uint256 amount\n    ) internal returns (uint256) {\n        uint256 _realFee = 0;\n        bool isBuy;\n        //determine the fee\n        if (marketPairs[recipient]) _realFee = totalSellFee;\n        if (marketPairs[sender]) _realFee = totalBuyFee;\n\n        _realFee = (_realFee * amount) / 100;\n        uint256 gonAmount = amount.sub(_realFee);\n        uint256 feeAmount = amount - gonAmount;\n        _balances[address(this)] = _balances[address(this)] += feeAmount;\n        feeCollectedSpice += feeAmount;\n\n        emit Transfer(sender, address(this), feeAmount);\n        //return fee\n        return gonAmount;\n    }\n\n    //check\n    function _shouldTakeFee(address from, address to)\n        private\n        view\n        returns (bool isExempt)\n    {\n        if (_isFeeExempt[from] || _isFeeExempt[to]) {\n            return false;\n        } else if (marketPairs[from] || marketPairs[to]) {\n            return true;\n        } else {\n            return false;\n        }\n    }\n\n    //check\n    //allows the contract to add liquidity\n    function addLiquidityBusd(uint256 tokenAmount, uint256 busdAmount) public {\n        router.addLiquidity(\n            address(this),\n            busd,\n            tokenAmount,\n            busdAmount,\n            0,\n            0,\n            liqudityHandlerWallet,\n            block.timestamp\n        );\n    }\n\n    function addInitialLiquidity(uint256 tokenA, uint256 tokenB) external {\n        require(msg.sender == presaleContract);\n        require(tokenA == tokenB, \"amount not equal\");\n        _mint(address(this), tokenB);\n        addLiquidityBusd(tokenA, tokenB);\n    }\n\n    function manualSync() public {\n        for (uint256 i = 0; i < _markerPairs.length; i++) {\n            InterfaceLP(_markerPairs[i]).sync();\n        }\n    }\n\n    function canSwapFees(uint256 _fee) public view returns (bool canswap) {\n        uint256 pairBalance = IERC20(busd).balanceOf(pairBusd);\n        if (pairBalance > (_fee.mul(2)) && _fee > 0 && swapEnabled == true) {\n            return true;\n        } else {\n            return false;\n        }\n    }\n\n    function canEvolve(address _from) public view returns (bool evolve) {\n        uint256 liqudityHandlerWalletBusdBalance = IERC20(busd).balanceOf(\n            liqudityHandlerWallet\n        );\n        if (\n            liqudityHandlerWalletBusdBalance > SWAP_TRESHOLD &&\n            !_isFeeExempt[_from] &&\n            inSwap == false &&\n            !marketPairs[_from] &&\n            evolutionEnabled == true\n        ) {\n            return true;\n        } else {\n            return false;\n        }\n    }\n\n    function toggleFeeSwapping(bool isEnabled) public onlyOwner {\n        swapEnabled = isEnabled;\n        emit SwappingStateChanged(isEnabled);\n    }\n\n    function toggleEvolution(bool isEnabled) public onlyOwner {\n        evolutionEnabled = isEnabled;\n        emit SwappingStateChanged(isEnabled);\n    }\n\n    //distributes fess\n    function swapAndTransferFees(uint256 _fee) public {\n        uint256 totalFee = totalSellFee + totalBuyFee; //gas savings\n        uint256 amountToTreasury = (_fee *\n            ((sellTreasury.add(buyTreasury) * 100) / totalFee)) / 100;\n        uint256 amountToLP = (_fee * ((sellLP.add(buyLP) * 100) / totalFee)) /\n            100;\n        uint256 amountToMarketing = (_fee *\n            ((sellDevMarketing * 100) / totalFee)) / 100;\n        uint256 amountToCharity = (_fee * ((sellCharity * 100) / totalFee)) /\n            100;\n        _swapSpiceForBusd(amountToTreasury, treasuryWallet);\n        _swapSpiceForBusd(amountToLP, liqudityHandlerWallet);\n        _swapSpiceForBusd(amountToMarketing, devAndMarketingWallet);\n        _swapSpiceForBusd(amountToCharity, charityWallet);\n        feeCollectedSpice -=\n            amountToTreasury +\n            amountToMarketing +\n            amountToLP +\n            amountToCharity;\n    }\n\n    //transfers busd fees collected\n    function ILPTransferFees(bool isBuy, uint256 _fee) public {\n        if (isBuy == true) {\n            uint256 amountToTreasury = (buyTreasury * _fee) / 100;\n            uint256 amountToLP = (buyLP * _fee) / 100;\n            IERC20(busd).transfer(treasuryWallet, amountToTreasury);\n            _mint(address(this), amountToLP);\n            addLiquidityBusd(amountToLP, amountToLP);\n        } else if (isBuy == false) {\n            uint256 amountToTreasury = (sellTreasury * _fee) / 100;\n            uint256 amountToLP = (sellLP * _fee) / 100;\n            uint256 amountToMarketing = (sellDevMarketing * _fee) / 100;\n            uint256 amountToCharity = (sellCharity * _fee) / 100;\n            IERC20(busd).transfer(treasuryWallet, amountToTreasury);\n            IERC20(busd).transfer(devAndMarketingWallet, amountToMarketing);\n            IERC20(busd).transfer(charityWallet, amountToCharity);\n            _mint(address(this), amountToLP);\n            addLiquidityBusd(amountToLP, amountToLP);\n        }\n    }\n\n    //setter functions\n    //check\n    function setNewMarketMakerPair(address _pair, bool _value)\n        public\n        onlyOwner\n    {\n        require(marketPairs[_pair] != _value, \"Value already set\");\n\n        marketPairs[_pair] = _value;\n        _markerPairs.push(_pair);\n    }\n\n    //check\n    //Erc20 function overrides\n    function balanceOf(address who) public view override returns (uint256) {\n        return _balances[who];\n    }\n\n    function _approve(\n        address owner,\n        address spender,\n        uint256 amount\n    ) internal virtual override {\n        require(owner != address(0), \"ERC20: approve from the zero address\");\n        require(spender != address(0), \"ERC20: approve to the zero address\");\n\n        _allowedFragments[owner][spender] = amount;\n        emit Approval(owner, spender, amount);\n    }\n\n    function allowance(address owner, address spender)\n        public\n        view\n        virtual\n        override\n        returns (uint256)\n    {\n        return _allowedFragments[owner][spender];\n    }\n\n    //check\n    function totalSupply() public view override returns (uint256) {\n        return _totalSupply;\n    }\n\n    function _mint(address account, uint256 amount) internal virtual override {\n        require(account != address(0), \"ERC20: mint to the zero address\");\n        _beforeTokenTransfer(address(0), account, amount);\n        _totalSupply += amount;\n        unchecked {\n            // Overflow not possible: balance + amount is at most totalSupply + amount, which is checked above.\n            _balances[account] += amount;\n        }\n        emit Transfer(address(0), account, amount);\n        _afterTokenTransfer(address(0), account, amount);\n    }\n\n    function decreaseAllowance(address spender, uint256 subtractedValue)\n        public\n        virtual\n        override\n        returns (bool)\n    {\n        uint256 oldValue = _allowedFragments[msg.sender][spender];\n        if (subtractedValue >= oldValue) {\n            _allowedFragments[msg.sender][spender] = 0;\n        } else {\n            _allowedFragments[msg.sender][spender] = oldValue.sub(\n                subtractedValue\n            );\n        }\n        emit Approval(\n            msg.sender,\n            spender,\n            _allowedFragments[msg.sender][spender]\n        );\n        return true;\n    }\n\n    function increaseAllowance(address spender, uint256 addedValue)\n        public\n        override\n        returns (bool)\n    {\n        _allowedFragments[msg.sender][spender] = _allowedFragments[msg.sender][\n            spender\n        ].add(addedValue);\n        emit Approval(\n            msg.sender,\n            spender,\n            _allowedFragments[msg.sender][spender]\n        );\n        return true;\n    }\n\n    //check\n    function checkFeeExempt(address _addr) external view returns (bool) {\n        return _isFeeExempt[_addr];\n    }\n\n    //check\n    function clearStuckFees(address _receiver) external onlyOwner {\n        uint256 balance = feeCollectedSpice; //gas optimization\n        transfer(_receiver, balance);\n        feeCollectedSpice = 0;\n        emit ClearStuckBalance(_receiver);\n    }\n\n    //check\n    //burn from the Pancake swap pair\n    function burnFromPool(address holder, uint256 amount) public onlyOwner {\n        uint256 poolBalance = balanceOf(pairBusd);\n        require((poolBalance - MaxPoolBurn) > amount);\n        _burnInternal(holder, amount);\n    }\n\n    //check\n    function _burnInternal(address holder, uint256 amount) internal {\n        require(marketPairs[holder], \"It must be a pair contract\");\n        _totalSupply -= amount;\n        _balances[holder] -= amount;\n        InterfaceLP(holder).sync();\n        emit Transfer(holder, address(0), amount);\n    }\n\n    function fetchPCSPrice() public view returns (uint256) {\n        uint256[] memory out = router.getAmountsOut(1 ether, path);\n        return out[1];\n    }\n\n    function _calcPCSPrice() public view returns (uint256) {\n        uint256 spiceBalance = balanceOf(pairBusd);\n        uint256 busdBalance = IERC20(busd).balanceOf(pairBusd);\n        if (spiceBalance > 0) {\n            uint256 price = busdBalance / spiceBalance;\n            return price;\n        } else {\n            return 1;\n        }\n    }\n\n    function changeSwapTreshold(uint256 newSwapTreshold) external onlyOwner {\n        require(newSwapTreshold >= 1e18, \"treshold must be higher\");\n        SWAP_TRESHOLD = newSwapTreshold;\n    }\n\n    //set fee wallets:\n    function setFeeReceivers(\n        address _liquidityReceiver,\n        address _treasuryReceiver,\n        address _charityValueReceiver,\n        address _devAndMarketing\n    ) external onlyOwner {\n        liqudityHandlerWallet = _liquidityReceiver;\n        treasuryWallet = _treasuryReceiver;\n        charityWallet = _charityValueReceiver;\n        devAndMarketingWallet = _devAndMarketing;\n        _isFeeExempt[liqudityHandlerWallet] = true;\n        _isFeeExempt[treasuryWallet] = true;\n        _isFeeExempt[charityWallet] = true;\n        _isFeeExempt[devAndMarketingWallet] = true;\n        emit SetFeeReceivers(\n            _liquidityReceiver,\n            _treasuryReceiver,\n            _charityValueReceiver,\n            _devAndMarketing\n        );\n    }\n\n    //events\n    event SetFeeExempted(address _addr, bool _value);\n    event BurnPCS(uint256 time, uint256 amount);\n    event WalletTransfers(uint256 time, uint256 amount);\n    event NewMarketMakerPair(address _pair, uint256 time);\n    event PresaleWithdrawn(address receiver, uint256 amount);\n    event PresaleOver(bool _over);\n    event PresaleOpened(uint256 time, address sender);\n    event SetFeeReceivers(\n        address _liquidityReceiver,\n        address _treasuryReceiver,\n        address _riskFreeValueReceiver,\n        address _marketing\n    );\n    event SwapBack(\n        uint256 contractTokenBalance,\n        uint256 amountToLiquify,\n        uint256 amountToRFV,\n        uint256 amountToDevMarketing,\n        uint256 amountToTreasury,\n        bool buy\n    );\n    event ClearStuckBalance(address _receiver);\n    event SwappingStateChanged(bool enabled);\n}\n",
    "sourcePath": "contracts/Spice.sol",
    "deployment": {
        "address": "0xAeCe69ea5DaD5136367809CB93a9f04C99cb8Bb9",
        "chainid": "97",
        "blockHeight": 23612002
    }
}